{
	"contracts/stakingContract.sol": {
		"stakingContract": {
			"abi": [
				{
					"anonymous": false,
					"inputs": [
						{
							"indexed": true,
							"internalType": "address",
							"name": "previousOwner",
							"type": "address"
						},
						{
							"indexed": true,
							"internalType": "address",
							"name": "newOwner",
							"type": "address"
						}
					],
					"name": "OwnershipTransferred",
					"type": "event"
				},
				{
					"anonymous": false,
					"inputs": [
						{
							"indexed": true,
							"internalType": "address",
							"name": "receiver",
							"type": "address"
						},
						{
							"indexed": false,
							"internalType": "uint256",
							"name": "amount",
							"type": "uint256"
						}
					],
					"name": "TransferReward",
					"type": "event"
				},
				{
					"inputs": [],
					"name": "addIntoTreasury",
					"outputs": [],
					"stateMutability": "payable",
					"type": "function"
				},
				{
					"inputs": [
						{
							"internalType": "address[]",
							"name": "_nftHolders",
							"type": "address[]"
						}
					],
					"name": "addNftHoldersInBulk",
					"outputs": [],
					"stateMutability": "nonpayable",
					"type": "function"
				},
				{
					"inputs": [
						{
							"internalType": "address",
							"name": "_singleNftHolder",
							"type": "address"
						}
					],
					"name": "addSingleNftHolder",
					"outputs": [],
					"stateMutability": "nonpayable",
					"type": "function"
				},
				{
					"inputs": [
						{
							"internalType": "uint256",
							"name": "_stakingReward",
							"type": "uint256"
						}
					],
					"name": "changestakingReward",
					"outputs": [],
					"stateMutability": "nonpayable",
					"type": "function"
				},
				{
					"inputs": [],
					"name": "checkTreasuryBalance",
					"outputs": [
						{
							"internalType": "uint256",
							"name": "",
							"type": "uint256"
						}
					],
					"stateMutability": "view",
					"type": "function"
				},
				{
					"inputs": [
						{
							"internalType": "uint256",
							"name": "",
							"type": "uint256"
						}
					],
					"name": "nftHolders",
					"outputs": [
						{
							"internalType": "address",
							"name": "",
							"type": "address"
						}
					],
					"stateMutability": "view",
					"type": "function"
				},
				{
					"inputs": [],
					"name": "owner",
					"outputs": [
						{
							"internalType": "address",
							"name": "",
							"type": "address"
						}
					],
					"stateMutability": "view",
					"type": "function"
				},
				{
					"inputs": [
						{
							"internalType": "uint256",
							"name": "_index",
							"type": "uint256"
						}
					],
					"name": "removeNftHolder",
					"outputs": [],
					"stateMutability": "nonpayable",
					"type": "function"
				},
				{
					"inputs": [],
					"name": "renounceOwnership",
					"outputs": [],
					"stateMutability": "nonpayable",
					"type": "function"
				},
				{
					"inputs": [],
					"name": "showAllNftHolders",
					"outputs": [
						{
							"internalType": "address[]",
							"name": "",
							"type": "address[]"
						}
					],
					"stateMutability": "view",
					"type": "function"
				},
				{
					"inputs": [],
					"name": "sizeOfNftHolder",
					"outputs": [
						{
							"internalType": "uint256",
							"name": "",
							"type": "uint256"
						}
					],
					"stateMutability": "view",
					"type": "function"
				},
				{
					"inputs": [
						{
							"internalType": "address",
							"name": "newOwner",
							"type": "address"
						}
					],
					"name": "transferOwnership",
					"outputs": [],
					"stateMutability": "nonpayable",
					"type": "function"
				},
				{
					"inputs": [
						{
							"internalType": "address payable",
							"name": "add",
							"type": "address"
						}
					],
					"name": "transferReward",
					"outputs": [],
					"stateMutability": "payable",
					"type": "function"
				},
				{
					"inputs": [],
					"name": "transferStakingReward",
					"outputs": [],
					"stateMutability": "nonpayable",
					"type": "function"
				}
			],
			"devdoc": {
				"kind": "dev",
				"methods": {
					"owner()": {
						"details": "Returns the address of the current owner."
					},
					"renounceOwnership()": {
						"details": "Leaves the contract without owner. It will not be possible to call `onlyOwner` functions anymore. Can only be called by the current owner. NOTE: Renouncing ownership will leave the contract without an owner, thereby removing any functionality that is only available to the owner."
					},
					"transferOwnership(address)": {
						"details": "Transfers ownership of the contract to a new account (`newOwner`). Can only be called by the current owner."
					}
				},
				"version": 1
			},
			"evm": {
				"assembly": "    /* \"contracts/stakingContract.sol\":111:2410  contract stakingContract is Ownable {... */\n  mstore(0x40, 0x80)\n  callvalue\n  dup1\n  iszero\n  tag_1\n  jumpi\n  0x00\n  dup1\n  revert\ntag_1:\n  pop\n    /* \"@openzeppelin/contracts/access/Ownable.sol\":936:968  _transferOwnership(_msgSender()) */\n  tag_4\n    /* \"@openzeppelin/contracts/access/Ownable.sol\":955:967  _msgSender() */\n  tag_5\n    /* \"@openzeppelin/contracts/access/Ownable.sol\":955:965  _msgSender */\n  shl(0x20, tag_6)\n    /* \"@openzeppelin/contracts/access/Ownable.sol\":955:967  _msgSender() */\n  0x20\n  shr\n  jump\t// in\ntag_5:\n    /* \"@openzeppelin/contracts/access/Ownable.sol\":936:954  _transferOwnership */\n  shl(0x20, tag_7)\n    /* \"@openzeppelin/contracts/access/Ownable.sol\":936:968  _transferOwnership(_msgSender()) */\n  0x20\n  shr\n  jump\t// in\ntag_4:\n    /* \"contracts/stakingContract.sol\":111:2410  contract stakingContract is Ownable {... */\n  jump(tag_8)\n    /* \"@openzeppelin/contracts/utils/Context.sol\":640:736  function _msgSender() internal view virtual returns (address) {... */\ntag_6:\n    /* \"@openzeppelin/contracts/utils/Context.sol\":693:700  address */\n  0x00\n    /* \"@openzeppelin/contracts/utils/Context.sol\":719:729  msg.sender */\n  caller\n    /* \"@openzeppelin/contracts/utils/Context.sol\":712:729  return msg.sender */\n  swap1\n  pop\n    /* \"@openzeppelin/contracts/utils/Context.sol\":640:736  function _msgSender() internal view virtual returns (address) {... */\n  swap1\n  jump\t// out\n    /* \"@openzeppelin/contracts/access/Ownable.sol\":2433:2620  function _transferOwnership(address newOwner) internal virtual {... */\ntag_7:\n    /* \"@openzeppelin/contracts/access/Ownable.sol\":2506:2522  address oldOwner */\n  0x00\n    /* \"@openzeppelin/contracts/access/Ownable.sol\":2525:2531  _owner */\n  dup1\n  0x00\n  swap1\n  sload\n  swap1\n  0x0100\n  exp\n  swap1\n  div\n  0xffffffffffffffffffffffffffffffffffffffff\n  and\n    /* \"@openzeppelin/contracts/access/Ownable.sol\":2506:2531  address oldOwner = _owner */\n  swap1\n  pop\n    /* \"@openzeppelin/contracts/access/Ownable.sol\":2550:2558  newOwner */\n  dup2\n    /* \"@openzeppelin/contracts/access/Ownable.sol\":2541:2547  _owner */\n  0x00\n  dup1\n    /* \"@openzeppelin/contracts/access/Ownable.sol\":2541:2558  _owner = newOwner */\n  0x0100\n  exp\n  dup2\n  sload\n  dup2\n  0xffffffffffffffffffffffffffffffffffffffff\n  mul\n  not\n  and\n  swap1\n  dup4\n  0xffffffffffffffffffffffffffffffffffffffff\n  and\n  mul\n  or\n  swap1\n  sstore\n  pop\n    /* \"@openzeppelin/contracts/access/Ownable.sol\":2604:2612  newOwner */\n  dup2\n    /* \"@openzeppelin/contracts/access/Ownable.sol\":2573:2613  OwnershipTransferred(oldOwner, newOwner) */\n  0xffffffffffffffffffffffffffffffffffffffff\n  and\n    /* \"@openzeppelin/contracts/access/Ownable.sol\":2594:2602  oldOwner */\n  dup2\n    /* \"@openzeppelin/contracts/access/Ownable.sol\":2573:2613  OwnershipTransferred(oldOwner, newOwner) */\n  0xffffffffffffffffffffffffffffffffffffffff\n  and\n  0x8be0079c531659141344cd1fd0a4f28419497f9722a3daafe3b4186f6b6457e0\n  mload(0x40)\n  mload(0x40)\n  dup1\n  swap2\n  sub\n  swap1\n  log3\n    /* \"@openzeppelin/contracts/access/Ownable.sol\":2496:2620  {... */\n  pop\n    /* \"@openzeppelin/contracts/access/Ownable.sol\":2433:2620  function _transferOwnership(address newOwner) internal virtual {... */\n  pop\n  jump\t// out\n    /* \"contracts/stakingContract.sol\":111:2410  contract stakingContract is Ownable {... */\ntag_8:\n  dataSize(sub_0)\n  dup1\n  dataOffset(sub_0)\n  0x00\n  codecopy\n  0x00\n  return\nstop\n\nsub_0: assembly {\n        /* \"contracts/stakingContract.sol\":111:2410  contract stakingContract is Ownable {... */\n      mstore(0x40, 0x80)\n      jumpi(tag_1, lt(calldatasize, 0x04))\n      shr(0xe0, calldataload(0x00))\n      dup1\n      0x8c93256e\n      gt\n      tag_16\n      jumpi\n      dup1\n      0xf2fde38b\n      gt\n      tag_17\n      jumpi\n      dup1\n      0xf2fde38b\n      eq\n      tag_12\n      jumpi\n      dup1\n      0xf4c4c79f\n      eq\n      tag_13\n      jumpi\n      dup1\n      0xfd32dd9e\n      eq\n      tag_14\n      jumpi\n      dup1\n      0xfeb99386\n      eq\n      tag_15\n      jumpi\n      jump(tag_1)\n    tag_17:\n      dup1\n      0x8c93256e\n      eq\n      tag_9\n      jumpi\n      dup1\n      0x8da5cb5b\n      eq\n      tag_10\n      jumpi\n      dup1\n      0xaa88c53b\n      eq\n      tag_11\n      jumpi\n      jump(tag_1)\n    tag_16:\n      dup1\n      0x3b882fbd\n      gt\n      tag_18\n      jumpi\n      dup1\n      0x3b882fbd\n      eq\n      tag_5\n      jumpi\n      dup1\n      0x3baacc78\n      eq\n      tag_6\n      jumpi\n      dup1\n      0x3bafcf02\n      eq\n      tag_7\n      jumpi\n      dup1\n      0x715018a6\n      eq\n      tag_8\n      jumpi\n      jump(tag_1)\n    tag_18:\n      dup1\n      0x0f138bfe\n      eq\n      tag_2\n      jumpi\n      dup1\n      0x13c9e48a\n      eq\n      tag_3\n      jumpi\n      dup1\n      0x2bf24072\n      eq\n      tag_4\n      jumpi\n    tag_1:\n      0x00\n      dup1\n      revert\n        /* \"contracts/stakingContract.sol\":541:645  function checkTreasuryBalance() public view onlyOwner returns (uint256) {... */\n    tag_2:\n      callvalue\n      dup1\n      iszero\n      tag_19\n      jumpi\n      0x00\n      dup1\n      revert\n    tag_19:\n      pop\n      tag_20\n      tag_21\n      jump\t// in\n    tag_20:\n      mload(0x40)\n      tag_22\n      swap2\n      swap1\n      tag_23\n      jump\t// in\n    tag_22:\n      mload(0x40)\n      dup1\n      swap2\n      sub\n      swap1\n      return\n        /* \"contracts/stakingContract.sol\":2082:2267  function  changestakingReward (uint256 _stakingReward) public onlyOwner {... */\n    tag_3:\n      callvalue\n      dup1\n      iszero\n      tag_24\n      jumpi\n      0x00\n      dup1\n      revert\n    tag_24:\n      pop\n      tag_25\n      0x04\n      dup1\n      calldatasize\n      sub\n      dup2\n      add\n      swap1\n      tag_26\n      swap2\n      swap1\n      tag_27\n      jump\t// in\n    tag_26:\n      tag_28\n      jump\t// in\n    tag_25:\n      stop\n        /* \"contracts/stakingContract.sol\":420:510  function addIntoTreasury() public payable onlyOwner {... */\n    tag_4:\n      tag_29\n      tag_30\n      jump\t// in\n    tag_29:\n      stop\n        /* \"contracts/stakingContract.sol\":1272:1370  function sizeOfNftHolder() public view returns (uint256) {... */\n    tag_5:\n      callvalue\n      dup1\n      iszero\n      tag_31\n      jumpi\n      0x00\n      dup1\n      revert\n    tag_31:\n      pop\n      tag_32\n      tag_33\n      jump\t// in\n    tag_32:\n      mload(0x40)\n      tag_34\n      swap2\n      swap1\n      tag_23\n      jump\t// in\n    tag_34:\n      mload(0x40)\n      dup1\n      swap2\n      sub\n      swap1\n      return\n        /* \"contracts/stakingContract.sol\":1426:1709  function removeNftHolder(uint256 _index) public onlyOwner {... */\n    tag_6:\n      callvalue\n      dup1\n      iszero\n      tag_35\n      jumpi\n      0x00\n      dup1\n      revert\n    tag_35:\n      pop\n      tag_36\n      0x04\n      dup1\n      calldatasize\n      sub\n      dup2\n      add\n      swap1\n      tag_37\n      swap2\n      swap1\n      tag_27\n      jump\t// in\n    tag_37:\n      tag_38\n      jump\t// in\n    tag_36:\n      stop\n        /* \"contracts/stakingContract.sol\":1088:1209  function addSingleNftHolder(address _singleNftHolder) public onlyOwner {... */\n    tag_7:\n      callvalue\n      dup1\n      iszero\n      tag_39\n      jumpi\n      0x00\n      dup1\n      revert\n    tag_39:\n      pop\n      tag_40\n      0x04\n      dup1\n      calldatasize\n      sub\n      dup2\n      add\n      swap1\n      tag_41\n      swap2\n      swap1\n      tag_42\n      jump\t// in\n    tag_41:\n      tag_43\n      jump\t// in\n    tag_40:\n      stop\n        /* \"@openzeppelin/contracts/access/Ownable.sol\":1831:1932  function renounceOwnership() public virtual onlyOwner {... */\n    tag_8:\n      callvalue\n      dup1\n      iszero\n      tag_44\n      jumpi\n      0x00\n      dup1\n      revert\n    tag_44:\n      pop\n      tag_45\n      tag_46\n      jump\t// in\n    tag_45:\n      stop\n        /* \"contracts/stakingContract.sol\":718:968  function transferReward(address payable add) public payable onlyOwner {... */\n    tag_9:\n      tag_47\n      0x04\n      dup1\n      calldatasize\n      sub\n      dup2\n      add\n      swap1\n      tag_48\n      swap2\n      swap1\n      tag_49\n      jump\t// in\n    tag_48:\n      tag_50\n      jump\t// in\n    tag_47:\n      stop\n        /* \"@openzeppelin/contracts/access/Ownable.sol\":1201:1286  function owner() public view virtual returns (address) {... */\n    tag_10:\n      callvalue\n      dup1\n      iszero\n      tag_51\n      jumpi\n      0x00\n      dup1\n      revert\n    tag_51:\n      pop\n      tag_52\n      tag_53\n      jump\t// in\n    tag_52:\n      mload(0x40)\n      tag_54\n      swap2\n      swap1\n      tag_55\n      jump\t// in\n    tag_54:\n      mload(0x40)\n      dup1\n      swap2\n      sub\n      swap1\n      return\n        /* \"contracts/stakingContract.sol\":1755:1860  function showAllNftHolders () view public  returns ( address[] memory) {... */\n    tag_11:\n      callvalue\n      dup1\n      iszero\n      tag_56\n      jumpi\n      0x00\n      dup1\n      revert\n    tag_56:\n      pop\n      tag_57\n      tag_58\n      jump\t// in\n    tag_57:\n      mload(0x40)\n      tag_59\n      swap2\n      swap1\n      tag_60\n      jump\t// in\n    tag_59:\n      mload(0x40)\n      dup1\n      swap2\n      sub\n      swap1\n      return\n        /* \"@openzeppelin/contracts/access/Ownable.sol\":2081:2279  function transferOwnership(address newOwner) public virtual onlyOwner {... */\n    tag_12:\n      callvalue\n      dup1\n      iszero\n      tag_61\n      jumpi\n      0x00\n      dup1\n      revert\n    tag_61:\n      pop\n      tag_62\n      0x04\n      dup1\n      calldatasize\n      sub\n      dup2\n      add\n      swap1\n      tag_63\n      swap2\n      swap1\n      tag_42\n      jump\t// in\n    tag_63:\n      tag_64\n      jump\t// in\n    tag_62:\n      stop\n        /* \"contracts/stakingContract.sol\":2273:2339  function transferStakingReward() public onlyOwner {... */\n    tag_13:\n      callvalue\n      dup1\n      iszero\n      tag_65\n      jumpi\n      0x00\n      dup1\n      revert\n    tag_65:\n      pop\n      tag_66\n      tag_67\n      jump\t// in\n    tag_66:\n      stop\n        /* \"contracts/stakingContract.sol\":334:361  address[] public nftHolders */\n    tag_14:\n      callvalue\n      dup1\n      iszero\n      tag_68\n      jumpi\n      0x00\n      dup1\n      revert\n    tag_68:\n      pop\n      tag_69\n      0x04\n      dup1\n      calldatasize\n      sub\n      dup2\n      add\n      swap1\n      tag_70\n      swap2\n      swap1\n      tag_27\n      jump\t// in\n    tag_70:\n      tag_71\n      jump\t// in\n    tag_69:\n      mload(0x40)\n      tag_72\n      swap2\n      swap1\n      tag_55\n      jump\t// in\n    tag_72:\n      mload(0x40)\n      dup1\n      swap2\n      sub\n      swap1\n      return\n        /* \"contracts/stakingContract.sol\":1870:2076  function addNftHoldersInBulk (address[] memory _nftHolders ) public onlyOwner {... */\n    tag_15:\n      callvalue\n      dup1\n      iszero\n      tag_73\n      jumpi\n      0x00\n      dup1\n      revert\n    tag_73:\n      pop\n      tag_74\n      0x04\n      dup1\n      calldatasize\n      sub\n      dup2\n      add\n      swap1\n      tag_75\n      swap2\n      swap1\n      tag_76\n      jump\t// in\n    tag_75:\n      tag_77\n      jump\t// in\n    tag_74:\n      stop\n        /* \"contracts/stakingContract.sol\":541:645  function checkTreasuryBalance() public view onlyOwner returns (uint256) {... */\n    tag_21:\n        /* \"contracts/stakingContract.sol\":604:611  uint256 */\n      0x00\n        /* \"@openzeppelin/contracts/access/Ownable.sol\":1094:1107  _checkOwner() */\n      tag_79\n        /* \"@openzeppelin/contracts/access/Ownable.sol\":1094:1105  _checkOwner */\n      tag_80\n        /* \"@openzeppelin/contracts/access/Ownable.sol\":1094:1107  _checkOwner() */\n      jump\t// in\n    tag_79:\n        /* \"contracts/stakingContract.sol\":630:638  treasury */\n      sload(0x03)\n        /* \"contracts/stakingContract.sol\":623:638  return treasury */\n      swap1\n      pop\n        /* \"contracts/stakingContract.sol\":541:645  function checkTreasuryBalance() public view onlyOwner returns (uint256) {... */\n      swap1\n      jump\t// out\n        /* \"contracts/stakingContract.sol\":2082:2267  function  changestakingReward (uint256 _stakingReward) public onlyOwner {... */\n    tag_28:\n        /* \"@openzeppelin/contracts/access/Ownable.sol\":1094:1107  _checkOwner() */\n      tag_83\n        /* \"@openzeppelin/contracts/access/Ownable.sol\":1094:1105  _checkOwner */\n      tag_80\n        /* \"@openzeppelin/contracts/access/Ownable.sol\":1094:1107  _checkOwner() */\n      jump\t// in\n    tag_83:\n        /* \"contracts/stakingContract.sol\":2199:2200  0 */\n      0x00\n        /* \"contracts/stakingContract.sol\":2181:2195  _stakingReward */\n      dup2\n        /* \"contracts/stakingContract.sol\":2181:2200  _stakingReward != 0 */\n      sub\n        /* \"contracts/stakingContract.sol\":2173:2219  require(_stakingReward != 0, \"Invalid Amount\") */\n      tag_85\n      jumpi\n      mload(0x40)\n      0x08c379a000000000000000000000000000000000000000000000000000000000\n      dup2\n      mstore\n      0x04\n      add\n      tag_86\n      swap1\n      tag_87\n      jump\t// in\n    tag_86:\n      mload(0x40)\n      dup1\n      swap2\n      sub\n      swap1\n      revert\n    tag_85:\n        /* \"contracts/stakingContract.sol\":2245:2259  _stakingReward */\n      dup1\n        /* \"contracts/stakingContract.sol\":2229:2242  stakingReward */\n      0x02\n        /* \"contracts/stakingContract.sol\":2229:2259  stakingReward = _stakingReward */\n      dup2\n      swap1\n      sstore\n      pop\n        /* \"contracts/stakingContract.sol\":2082:2267  function  changestakingReward (uint256 _stakingReward) public onlyOwner {... */\n      pop\n      jump\t// out\n        /* \"contracts/stakingContract.sol\":420:510  function addIntoTreasury() public payable onlyOwner {... */\n    tag_30:\n        /* \"@openzeppelin/contracts/access/Ownable.sol\":1094:1107  _checkOwner() */\n      tag_89\n        /* \"@openzeppelin/contracts/access/Ownable.sol\":1094:1105  _checkOwner */\n      tag_80\n        /* \"@openzeppelin/contracts/access/Ownable.sol\":1094:1107  _checkOwner() */\n      jump\t// in\n    tag_89:\n        /* \"contracts/stakingContract.sol\":494:503  msg.value */\n      callvalue\n        /* \"contracts/stakingContract.sol\":482:490  treasury */\n      0x03\n      0x00\n        /* \"contracts/stakingContract.sol\":482:503  treasury += msg.value */\n      dup3\n      dup3\n      sload\n      tag_91\n      swap2\n      swap1\n      tag_92\n      jump\t// in\n    tag_91:\n      swap3\n      pop\n      pop\n      dup2\n      swap1\n      sstore\n      pop\n        /* \"contracts/stakingContract.sol\":420:510  function addIntoTreasury() public payable onlyOwner {... */\n      jump\t// out\n        /* \"contracts/stakingContract.sol\":1272:1370  function sizeOfNftHolder() public view returns (uint256) {... */\n    tag_33:\n        /* \"contracts/stakingContract.sol\":1320:1327  uint256 */\n      0x00\n        /* \"contracts/stakingContract.sol\":1346:1356  nftHolders */\n      0x01\n        /* \"contracts/stakingContract.sol\":1346:1363  nftHolders.length */\n      dup1\n      sload\n      swap1\n      pop\n        /* \"contracts/stakingContract.sol\":1339:1363  return nftHolders.length */\n      swap1\n      pop\n        /* \"contracts/stakingContract.sol\":1272:1370  function sizeOfNftHolder() public view returns (uint256) {... */\n      swap1\n      jump\t// out\n        /* \"contracts/stakingContract.sol\":1426:1709  function removeNftHolder(uint256 _index) public onlyOwner {... */\n    tag_38:\n        /* \"@openzeppelin/contracts/access/Ownable.sol\":1094:1107  _checkOwner() */\n      tag_95\n        /* \"@openzeppelin/contracts/access/Ownable.sol\":1094:1105  _checkOwner */\n      tag_80\n        /* \"@openzeppelin/contracts/access/Ownable.sol\":1094:1107  _checkOwner() */\n      jump\t// in\n    tag_95:\n        /* \"contracts/stakingContract.sol\":1511:1521  nftHolders */\n      0x01\n        /* \"contracts/stakingContract.sol\":1511:1528  nftHolders.length */\n      dup1\n      sload\n      swap1\n      pop\n        /* \"contracts/stakingContract.sol\":1502:1508  _index */\n      dup2\n        /* \"contracts/stakingContract.sol\":1502:1528  _index < nftHolders.length */\n      lt\n        /* \"contracts/stakingContract.sol\":1494:1552  require(_index < nftHolders.length, \"Index out of bounds\") */\n      tag_97\n      jumpi\n      mload(0x40)\n      0x08c379a000000000000000000000000000000000000000000000000000000000\n      dup2\n      mstore\n      0x04\n      add\n      tag_98\n      swap1\n      tag_99\n      jump\t// in\n    tag_98:\n      mload(0x40)\n      dup1\n      swap2\n      sub\n      swap1\n      revert\n    tag_97:\n        /* \"contracts/stakingContract.sol\":1567:1576  uint256 i */\n      0x00\n        /* \"contracts/stakingContract.sol\":1579:1585  _index */\n      dup2\n        /* \"contracts/stakingContract.sol\":1567:1585  uint256 i = _index */\n      swap1\n      pop\n        /* \"contracts/stakingContract.sol\":1562:1677  for (uint256 i = _index; i < nftHolders.length - 1; i++) {... */\n    tag_100:\n        /* \"contracts/stakingContract.sol\":1611:1612  1 */\n      0x01\n        /* \"contracts/stakingContract.sol\":1591:1601  nftHolders */\n      dup1\n        /* \"contracts/stakingContract.sol\":1591:1608  nftHolders.length */\n      dup1\n      sload\n      swap1\n      pop\n        /* \"contracts/stakingContract.sol\":1591:1612  nftHolders.length - 1 */\n      tag_103\n      swap2\n      swap1\n      tag_104\n      jump\t// in\n    tag_103:\n        /* \"contracts/stakingContract.sol\":1587:1588  i */\n      dup2\n        /* \"contracts/stakingContract.sol\":1587:1612  i < nftHolders.length - 1 */\n      lt\n        /* \"contracts/stakingContract.sol\":1562:1677  for (uint256 i = _index; i < nftHolders.length - 1; i++) {... */\n      iszero\n      tag_101\n      jumpi\n        /* \"contracts/stakingContract.sol\":1649:1659  nftHolders */\n      0x01\n        /* \"contracts/stakingContract.sol\":1664:1665  1 */\n      dup1\n        /* \"contracts/stakingContract.sol\":1660:1661  i */\n      dup3\n        /* \"contracts/stakingContract.sol\":1660:1665  i + 1 */\n      tag_105\n      swap2\n      swap1\n      tag_92\n      jump\t// in\n    tag_105:\n        /* \"contracts/stakingContract.sol\":1649:1666  nftHolders[i + 1] */\n      dup2\n      sload\n      dup2\n      lt\n      tag_106\n      jumpi\n      tag_107\n      tag_108\n      jump\t// in\n    tag_107:\n    tag_106:\n      swap1\n      0x00\n      mstore\n      keccak256(0x00, 0x20)\n      add\n      0x00\n      swap1\n      sload\n      swap1\n      0x0100\n      exp\n      swap1\n      div\n      0xffffffffffffffffffffffffffffffffffffffff\n      and\n        /* \"contracts/stakingContract.sol\":1633:1643  nftHolders */\n      0x01\n        /* \"contracts/stakingContract.sol\":1644:1645  i */\n      dup3\n        /* \"contracts/stakingContract.sol\":1633:1646  nftHolders[i] */\n      dup2\n      sload\n      dup2\n      lt\n      tag_110\n      jumpi\n      tag_111\n      tag_108\n      jump\t// in\n    tag_111:\n    tag_110:\n      swap1\n      0x00\n      mstore\n      keccak256(0x00, 0x20)\n      add\n      0x00\n        /* \"contracts/stakingContract.sol\":1633:1666  nftHolders[i] = nftHolders[i + 1] */\n      0x0100\n      exp\n      dup2\n      sload\n      dup2\n      0xffffffffffffffffffffffffffffffffffffffff\n      mul\n      not\n      and\n      swap1\n      dup4\n      0xffffffffffffffffffffffffffffffffffffffff\n      and\n      mul\n      or\n      swap1\n      sstore\n      pop\n        /* \"contracts/stakingContract.sol\":1614:1617  i++ */\n      dup1\n      dup1\n      tag_113\n      swap1\n      tag_114\n      jump\t// in\n    tag_113:\n      swap2\n      pop\n      pop\n        /* \"contracts/stakingContract.sol\":1562:1677  for (uint256 i = _index; i < nftHolders.length - 1; i++) {... */\n      jump(tag_100)\n    tag_101:\n      pop\n        /* \"contracts/stakingContract.sol\":1686:1696  nftHolders */\n      0x01\n        /* \"contracts/stakingContract.sol\":1686:1702  nftHolders.pop() */\n      dup1\n      sload\n      dup1\n      tag_115\n      jumpi\n      tag_116\n      tag_117\n      jump\t// in\n    tag_116:\n    tag_115:\n      0x01\n      swap1\n      sub\n      dup2\n      dup2\n      swap1\n      0x00\n      mstore\n      keccak256(0x00, 0x20)\n      add\n      exp(0x0100, 0x00)\n      dup2\n      sload\n      swap1\n      0xffffffffffffffffffffffffffffffffffffffff\n      mul\n      not\n      and\n      swap1\n      sstore\n      swap1\n      sstore\n        /* \"contracts/stakingContract.sol\":1426:1709  function removeNftHolder(uint256 _index) public onlyOwner {... */\n      pop\n      jump\t// out\n        /* \"contracts/stakingContract.sol\":1088:1209  function addSingleNftHolder(address _singleNftHolder) public onlyOwner {... */\n    tag_43:\n        /* \"@openzeppelin/contracts/access/Ownable.sol\":1094:1107  _checkOwner() */\n      tag_120\n        /* \"@openzeppelin/contracts/access/Ownable.sol\":1094:1105  _checkOwner */\n      tag_80\n        /* \"@openzeppelin/contracts/access/Ownable.sol\":1094:1107  _checkOwner() */\n      jump\t// in\n    tag_120:\n        /* \"contracts/stakingContract.sol\":1169:1179  nftHolders */\n      0x01\n        /* \"contracts/stakingContract.sol\":1185:1201  _singleNftHolder */\n      dup2\n        /* \"contracts/stakingContract.sol\":1169:1202  nftHolders.push(_singleNftHolder) */\n      swap1\n      dup1\n      0x01\n      dup2\n      sload\n      add\n      dup1\n      dup3\n      sstore\n      dup1\n      swap2\n      pop\n      pop\n      0x01\n      swap1\n      sub\n      swap1\n      0x00\n      mstore\n      keccak256(0x00, 0x20)\n      add\n      0x00\n      swap1\n      swap2\n      swap1\n      swap2\n      swap1\n      swap2\n      0x0100\n      exp\n      dup2\n      sload\n      dup2\n      0xffffffffffffffffffffffffffffffffffffffff\n      mul\n      not\n      and\n      swap1\n      dup4\n      0xffffffffffffffffffffffffffffffffffffffff\n      and\n      mul\n      or\n      swap1\n      sstore\n      pop\n        /* \"contracts/stakingContract.sol\":1088:1209  function addSingleNftHolder(address _singleNftHolder) public onlyOwner {... */\n      pop\n      jump\t// out\n        /* \"@openzeppelin/contracts/access/Ownable.sol\":1831:1932  function renounceOwnership() public virtual onlyOwner {... */\n    tag_46:\n        /* \"@openzeppelin/contracts/access/Ownable.sol\":1094:1107  _checkOwner() */\n      tag_124\n        /* \"@openzeppelin/contracts/access/Ownable.sol\":1094:1105  _checkOwner */\n      tag_80\n        /* \"@openzeppelin/contracts/access/Ownable.sol\":1094:1107  _checkOwner() */\n      jump\t// in\n    tag_124:\n        /* \"@openzeppelin/contracts/access/Ownable.sol\":1895:1925  _transferOwnership(address(0)) */\n      tag_126\n        /* \"@openzeppelin/contracts/access/Ownable.sol\":1922:1923  0 */\n      0x00\n        /* \"@openzeppelin/contracts/access/Ownable.sol\":1895:1913  _transferOwnership */\n      tag_127\n        /* \"@openzeppelin/contracts/access/Ownable.sol\":1895:1925  _transferOwnership(address(0)) */\n      jump\t// in\n    tag_126:\n        /* \"@openzeppelin/contracts/access/Ownable.sol\":1831:1932  function renounceOwnership() public virtual onlyOwner {... */\n      jump\t// out\n        /* \"contracts/stakingContract.sol\":718:968  function transferReward(address payable add) public payable onlyOwner {... */\n    tag_50:\n        /* \"@openzeppelin/contracts/access/Ownable.sol\":1094:1107  _checkOwner() */\n      tag_129\n        /* \"@openzeppelin/contracts/access/Ownable.sol\":1094:1105  _checkOwner */\n      tag_80\n        /* \"@openzeppelin/contracts/access/Ownable.sol\":1094:1107  _checkOwner() */\n      jump\t// in\n    tag_129:\n        /* \"contracts/stakingContract.sol\":818:827  msg.value */\n      callvalue\n        /* \"contracts/stakingContract.sol\":806:814  treasury */\n      sload(0x03)\n        /* \"contracts/stakingContract.sol\":806:827  treasury >= msg.value */\n      lt\n      iszero\n        /* \"contracts/stakingContract.sol\":798:852  require(treasury >= msg.value, \"Insufficient Balance\") */\n      tag_131\n      jumpi\n      mload(0x40)\n      0x08c379a000000000000000000000000000000000000000000000000000000000\n      dup2\n      mstore\n      0x04\n      add\n      tag_132\n      swap1\n      tag_133\n      jump\t// in\n    tag_132:\n      mload(0x40)\n      dup1\n      swap2\n      sub\n      swap1\n      revert\n    tag_131:\n        /* \"contracts/stakingContract.sol\":862:865  add */\n      dup1\n        /* \"contracts/stakingContract.sol\":862:874  add.transfer */\n      0xffffffffffffffffffffffffffffffffffffffff\n      and\n        /* \"contracts/stakingContract.sol\":862:885  add.transfer(msg.value) */\n      0x08fc\n        /* \"contracts/stakingContract.sol\":875:884  msg.value */\n      callvalue\n        /* \"contracts/stakingContract.sol\":862:885  add.transfer(msg.value) */\n      swap1\n      dup2\n      iszero\n      mul\n      swap1\n      mload(0x40)\n      0x00\n      mload(0x40)\n      dup1\n      dup4\n      sub\n      dup2\n      dup6\n      dup9\n      dup9\n      call\n      swap4\n      pop\n      pop\n      pop\n      pop\n      iszero\n      dup1\n      iszero\n      tag_135\n      jumpi\n      returndatasize\n      0x00\n      dup1\n      returndatacopy\n      revert(0x00, returndatasize)\n    tag_135:\n      pop\n        /* \"contracts/stakingContract.sol\":907:916  msg.value */\n      callvalue\n        /* \"contracts/stakingContract.sol\":895:903  treasury */\n      0x03\n      0x00\n        /* \"contracts/stakingContract.sol\":895:916  treasury -= msg.value */\n      dup3\n      dup3\n      sload\n      tag_136\n      swap2\n      swap1\n      tag_104\n      jump\t// in\n    tag_136:\n      swap3\n      pop\n      pop\n      dup2\n      swap1\n      sstore\n      pop\n        /* \"contracts/stakingContract.sol\":946:949  add */\n      dup1\n        /* \"contracts/stakingContract.sol\":931:961  TransferReward(add, msg.value) */\n      0xffffffffffffffffffffffffffffffffffffffff\n      and\n      0x65ba0d013dd6bc1414e500ad30e4d210e42f0159a37abcbc8f78e8e10a6a8765\n        /* \"contracts/stakingContract.sol\":951:960  msg.value */\n      callvalue\n        /* \"contracts/stakingContract.sol\":931:961  TransferReward(add, msg.value) */\n      mload(0x40)\n      tag_137\n      swap2\n      swap1\n      tag_23\n      jump\t// in\n    tag_137:\n      mload(0x40)\n      dup1\n      swap2\n      sub\n      swap1\n      log2\n        /* \"contracts/stakingContract.sol\":718:968  function transferReward(address payable add) public payable onlyOwner {... */\n      pop\n      jump\t// out\n        /* \"@openzeppelin/contracts/access/Ownable.sol\":1201:1286  function owner() public view virtual returns (address) {... */\n    tag_53:\n        /* \"@openzeppelin/contracts/access/Ownable.sol\":1247:1254  address */\n      0x00\n        /* \"@openzeppelin/contracts/access/Ownable.sol\":1273:1279  _owner */\n      dup1\n      0x00\n      swap1\n      sload\n      swap1\n      0x0100\n      exp\n      swap1\n      div\n      0xffffffffffffffffffffffffffffffffffffffff\n      and\n        /* \"@openzeppelin/contracts/access/Ownable.sol\":1266:1279  return _owner */\n      swap1\n      pop\n        /* \"@openzeppelin/contracts/access/Ownable.sol\":1201:1286  function owner() public view virtual returns (address) {... */\n      swap1\n      jump\t// out\n        /* \"contracts/stakingContract.sol\":1755:1860  function showAllNftHolders () view public  returns ( address[] memory) {... */\n    tag_58:\n        /* \"contracts/stakingContract.sol\":1808:1824  address[] memory */\n      0x60\n        /* \"contracts/stakingContract.sol\":1843:1853  nftHolders */\n      0x01\n        /* \"contracts/stakingContract.sol\":1836:1853  return nftHolders */\n      dup1\n      sload\n      dup1\n      0x20\n      mul\n      0x20\n      add\n      mload(0x40)\n      swap1\n      dup2\n      add\n      0x40\n      mstore\n      dup1\n      swap3\n      swap2\n      swap1\n      dup2\n      dup2\n      mstore\n      0x20\n      add\n      dup3\n      dup1\n      sload\n      dup1\n      iszero\n      tag_140\n      jumpi\n      0x20\n      mul\n      dup3\n      add\n      swap2\n      swap1\n      0x00\n      mstore\n      keccak256(0x00, 0x20)\n      swap1\n    tag_141:\n      dup2\n      0x00\n      swap1\n      sload\n      swap1\n      0x0100\n      exp\n      swap1\n      div\n      0xffffffffffffffffffffffffffffffffffffffff\n      and\n      0xffffffffffffffffffffffffffffffffffffffff\n      and\n      dup2\n      mstore\n      0x20\n      add\n      swap1\n      0x01\n      add\n      swap1\n      dup1\n      dup4\n      gt\n      tag_141\n      jumpi\n    tag_140:\n      pop\n      pop\n      pop\n      pop\n      pop\n      swap1\n      pop\n        /* \"contracts/stakingContract.sol\":1755:1860  function showAllNftHolders () view public  returns ( address[] memory) {... */\n      swap1\n      jump\t// out\n        /* \"@openzeppelin/contracts/access/Ownable.sol\":2081:2279  function transferOwnership(address newOwner) public virtual onlyOwner {... */\n    tag_64:\n        /* \"@openzeppelin/contracts/access/Ownable.sol\":1094:1107  _checkOwner() */\n      tag_143\n        /* \"@openzeppelin/contracts/access/Ownable.sol\":1094:1105  _checkOwner */\n      tag_80\n        /* \"@openzeppelin/contracts/access/Ownable.sol\":1094:1107  _checkOwner() */\n      jump\t// in\n    tag_143:\n        /* \"@openzeppelin/contracts/access/Ownable.sol\":2189:2190  0 */\n      0x00\n        /* \"@openzeppelin/contracts/access/Ownable.sol\":2169:2191  newOwner != address(0) */\n      0xffffffffffffffffffffffffffffffffffffffff\n      and\n        /* \"@openzeppelin/contracts/access/Ownable.sol\":2169:2177  newOwner */\n      dup2\n        /* \"@openzeppelin/contracts/access/Ownable.sol\":2169:2191  newOwner != address(0) */\n      0xffffffffffffffffffffffffffffffffffffffff\n      and\n      sub\n        /* \"@openzeppelin/contracts/access/Ownable.sol\":2161:2234  require(newOwner != address(0), \"Ownable: new owner is the zero address\") */\n      tag_145\n      jumpi\n      mload(0x40)\n      0x08c379a000000000000000000000000000000000000000000000000000000000\n      dup2\n      mstore\n      0x04\n      add\n      tag_146\n      swap1\n      tag_147\n      jump\t// in\n    tag_146:\n      mload(0x40)\n      dup1\n      swap2\n      sub\n      swap1\n      revert\n    tag_145:\n        /* \"@openzeppelin/contracts/access/Ownable.sol\":2244:2272  _transferOwnership(newOwner) */\n      tag_148\n        /* \"@openzeppelin/contracts/access/Ownable.sol\":2263:2271  newOwner */\n      dup2\n        /* \"@openzeppelin/contracts/access/Ownable.sol\":2244:2262  _transferOwnership */\n      tag_127\n        /* \"@openzeppelin/contracts/access/Ownable.sol\":2244:2272  _transferOwnership(newOwner) */\n      jump\t// in\n    tag_148:\n        /* \"@openzeppelin/contracts/access/Ownable.sol\":2081:2279  function transferOwnership(address newOwner) public virtual onlyOwner {... */\n      pop\n      jump\t// out\n        /* \"contracts/stakingContract.sol\":2273:2339  function transferStakingReward() public onlyOwner {... */\n    tag_67:\n        /* \"@openzeppelin/contracts/access/Ownable.sol\":1094:1107  _checkOwner() */\n      tag_150\n        /* \"@openzeppelin/contracts/access/Ownable.sol\":1094:1105  _checkOwner */\n      tag_80\n        /* \"@openzeppelin/contracts/access/Ownable.sol\":1094:1107  _checkOwner() */\n      jump\t// in\n    tag_150:\n        /* \"contracts/stakingContract.sol\":2273:2339  function transferStakingReward() public onlyOwner {... */\n      jump\t// out\n        /* \"contracts/stakingContract.sol\":334:361  address[] public nftHolders */\n    tag_71:\n      0x01\n      dup2\n      dup2\n      sload\n      dup2\n      lt\n      tag_152\n      jumpi\n      0x00\n      dup1\n      revert\n    tag_152:\n      swap1\n      0x00\n      mstore\n      keccak256(0x00, 0x20)\n      add\n      0x00\n      swap2\n      pop\n      sload\n      swap1\n      0x0100\n      exp\n      swap1\n      div\n      0xffffffffffffffffffffffffffffffffffffffff\n      and\n      dup2\n      jump\t// out\n        /* \"contracts/stakingContract.sol\":1870:2076  function addNftHoldersInBulk (address[] memory _nftHolders ) public onlyOwner {... */\n    tag_77:\n        /* \"@openzeppelin/contracts/access/Ownable.sol\":1094:1107  _checkOwner() */\n      tag_155\n        /* \"@openzeppelin/contracts/access/Ownable.sol\":1094:1105  _checkOwner */\n      tag_80\n        /* \"@openzeppelin/contracts/access/Ownable.sol\":1094:1107  _checkOwner() */\n      jump\t// in\n    tag_155:\n        /* \"contracts/stakingContract.sol\":1972:1978  uint i */\n      0x00\n        /* \"contracts/stakingContract.sol\":1967:2069  for (uint i = 0; i < _nftHolders.length; i++) {... */\n    tag_157:\n        /* \"contracts/stakingContract.sol\":1988:1999  _nftHolders */\n      dup2\n        /* \"contracts/stakingContract.sol\":1988:2006  _nftHolders.length */\n      mload\n        /* \"contracts/stakingContract.sol\":1984:1985  i */\n      dup2\n        /* \"contracts/stakingContract.sol\":1984:2006  i < _nftHolders.length */\n      lt\n        /* \"contracts/stakingContract.sol\":1967:2069  for (uint i = 0; i < _nftHolders.length; i++) {... */\n      iszero\n      tag_158\n      jumpi\n        /* \"contracts/stakingContract.sol\":2027:2037  nftHolders */\n      0x01\n        /* \"contracts/stakingContract.sol\":2043:2054  _nftHolders */\n      dup3\n        /* \"contracts/stakingContract.sol\":2055:2056  i */\n      dup3\n        /* \"contracts/stakingContract.sol\":2043:2057  _nftHolders[i] */\n      dup2\n      mload\n      dup2\n      lt\n      tag_160\n      jumpi\n      tag_161\n      tag_108\n      jump\t// in\n    tag_161:\n    tag_160:\n      0x20\n      mul\n      0x20\n      add\n      add\n      mload\n        /* \"contracts/stakingContract.sol\":2027:2058  nftHolders.push(_nftHolders[i]) */\n      swap1\n      dup1\n      0x01\n      dup2\n      sload\n      add\n      dup1\n      dup3\n      sstore\n      dup1\n      swap2\n      pop\n      pop\n      0x01\n      swap1\n      sub\n      swap1\n      0x00\n      mstore\n      keccak256(0x00, 0x20)\n      add\n      0x00\n      swap1\n      swap2\n      swap1\n      swap2\n      swap1\n      swap2\n      0x0100\n      exp\n      dup2\n      sload\n      dup2\n      0xffffffffffffffffffffffffffffffffffffffff\n      mul\n      not\n      and\n      swap1\n      dup4\n      0xffffffffffffffffffffffffffffffffffffffff\n      and\n      mul\n      or\n      swap1\n      sstore\n      pop\n        /* \"contracts/stakingContract.sol\":2008:2011  i++ */\n      dup1\n      dup1\n      tag_163\n      swap1\n      tag_114\n      jump\t// in\n    tag_163:\n      swap2\n      pop\n      pop\n        /* \"contracts/stakingContract.sol\":1967:2069  for (uint i = 0; i < _nftHolders.length; i++) {... */\n      jump(tag_157)\n    tag_158:\n      pop\n        /* \"contracts/stakingContract.sol\":1870:2076  function addNftHoldersInBulk (address[] memory _nftHolders ) public onlyOwner {... */\n      pop\n      jump\t// out\n        /* \"@openzeppelin/contracts/access/Ownable.sol\":1359:1489  function _checkOwner() internal view virtual {... */\n    tag_80:\n        /* \"@openzeppelin/contracts/access/Ownable.sol\":1433:1445  _msgSender() */\n      tag_165\n        /* \"@openzeppelin/contracts/access/Ownable.sol\":1433:1443  _msgSender */\n      tag_166\n        /* \"@openzeppelin/contracts/access/Ownable.sol\":1433:1445  _msgSender() */\n      jump\t// in\n    tag_165:\n        /* \"@openzeppelin/contracts/access/Ownable.sol\":1422:1445  owner() == _msgSender() */\n      0xffffffffffffffffffffffffffffffffffffffff\n      and\n        /* \"@openzeppelin/contracts/access/Ownable.sol\":1422:1429  owner() */\n      tag_167\n        /* \"@openzeppelin/contracts/access/Ownable.sol\":1422:1427  owner */\n      tag_53\n        /* \"@openzeppelin/contracts/access/Ownable.sol\":1422:1429  owner() */\n      jump\t// in\n    tag_167:\n        /* \"@openzeppelin/contracts/access/Ownable.sol\":1422:1445  owner() == _msgSender() */\n      0xffffffffffffffffffffffffffffffffffffffff\n      and\n      eq\n        /* \"@openzeppelin/contracts/access/Ownable.sol\":1414:1482  require(owner() == _msgSender(), \"Ownable: caller is not the owner\") */\n      tag_168\n      jumpi\n      mload(0x40)\n      0x08c379a000000000000000000000000000000000000000000000000000000000\n      dup2\n      mstore\n      0x04\n      add\n      tag_169\n      swap1\n      tag_170\n      jump\t// in\n    tag_169:\n      mload(0x40)\n      dup1\n      swap2\n      sub\n      swap1\n      revert\n    tag_168:\n        /* \"@openzeppelin/contracts/access/Ownable.sol\":1359:1489  function _checkOwner() internal view virtual {... */\n      jump\t// out\n        /* \"@openzeppelin/contracts/access/Ownable.sol\":2433:2620  function _transferOwnership(address newOwner) internal virtual {... */\n    tag_127:\n        /* \"@openzeppelin/contracts/access/Ownable.sol\":2506:2522  address oldOwner */\n      0x00\n        /* \"@openzeppelin/contracts/access/Ownable.sol\":2525:2531  _owner */\n      dup1\n      0x00\n      swap1\n      sload\n      swap1\n      0x0100\n      exp\n      swap1\n      div\n      0xffffffffffffffffffffffffffffffffffffffff\n      and\n        /* \"@openzeppelin/contracts/access/Ownable.sol\":2506:2531  address oldOwner = _owner */\n      swap1\n      pop\n        /* \"@openzeppelin/contracts/access/Ownable.sol\":2550:2558  newOwner */\n      dup2\n        /* \"@openzeppelin/contracts/access/Ownable.sol\":2541:2547  _owner */\n      0x00\n      dup1\n        /* \"@openzeppelin/contracts/access/Ownable.sol\":2541:2558  _owner = newOwner */\n      0x0100\n      exp\n      dup2\n      sload\n      dup2\n      0xffffffffffffffffffffffffffffffffffffffff\n      mul\n      not\n      and\n      swap1\n      dup4\n      0xffffffffffffffffffffffffffffffffffffffff\n      and\n      mul\n      or\n      swap1\n      sstore\n      pop\n        /* \"@openzeppelin/contracts/access/Ownable.sol\":2604:2612  newOwner */\n      dup2\n        /* \"@openzeppelin/contracts/access/Ownable.sol\":2573:2613  OwnershipTransferred(oldOwner, newOwner) */\n      0xffffffffffffffffffffffffffffffffffffffff\n      and\n        /* \"@openzeppelin/contracts/access/Ownable.sol\":2594:2602  oldOwner */\n      dup2\n        /* \"@openzeppelin/contracts/access/Ownable.sol\":2573:2613  OwnershipTransferred(oldOwner, newOwner) */\n      0xffffffffffffffffffffffffffffffffffffffff\n      and\n      0x8be0079c531659141344cd1fd0a4f28419497f9722a3daafe3b4186f6b6457e0\n      mload(0x40)\n      mload(0x40)\n      dup1\n      swap2\n      sub\n      swap1\n      log3\n        /* \"@openzeppelin/contracts/access/Ownable.sol\":2496:2620  {... */\n      pop\n        /* \"@openzeppelin/contracts/access/Ownable.sol\":2433:2620  function _transferOwnership(address newOwner) internal virtual {... */\n      pop\n      jump\t// out\n        /* \"@openzeppelin/contracts/utils/Context.sol\":640:736  function _msgSender() internal view virtual returns (address) {... */\n    tag_166:\n        /* \"@openzeppelin/contracts/utils/Context.sol\":693:700  address */\n      0x00\n        /* \"@openzeppelin/contracts/utils/Context.sol\":719:729  msg.sender */\n      caller\n        /* \"@openzeppelin/contracts/utils/Context.sol\":712:729  return msg.sender */\n      swap1\n      pop\n        /* \"@openzeppelin/contracts/utils/Context.sol\":640:736  function _msgSender() internal view virtual returns (address) {... */\n      swap1\n      jump\t// out\n        /* \"#utility.yul\":7:84   */\n    tag_173:\n        /* \"#utility.yul\":44:51   */\n      0x00\n        /* \"#utility.yul\":73:78   */\n      dup2\n        /* \"#utility.yul\":62:78   */\n      swap1\n      pop\n        /* \"#utility.yul\":7:84   */\n      swap2\n      swap1\n      pop\n      jump\t// out\n        /* \"#utility.yul\":90:208   */\n    tag_174:\n        /* \"#utility.yul\":177:201   */\n      tag_219\n        /* \"#utility.yul\":195:200   */\n      dup2\n        /* \"#utility.yul\":177:201   */\n      tag_173\n      jump\t// in\n    tag_219:\n        /* \"#utility.yul\":172:175   */\n      dup3\n        /* \"#utility.yul\":165:202   */\n      mstore\n        /* \"#utility.yul\":90:208   */\n      pop\n      pop\n      jump\t// out\n        /* \"#utility.yul\":214:436   */\n    tag_23:\n        /* \"#utility.yul\":307:311   */\n      0x00\n        /* \"#utility.yul\":345:347   */\n      0x20\n        /* \"#utility.yul\":334:343   */\n      dup3\n        /* \"#utility.yul\":330:348   */\n      add\n        /* \"#utility.yul\":322:348   */\n      swap1\n      pop\n        /* \"#utility.yul\":358:429   */\n      tag_221\n        /* \"#utility.yul\":426:427   */\n      0x00\n        /* \"#utility.yul\":415:424   */\n      dup4\n        /* \"#utility.yul\":411:428   */\n      add\n        /* \"#utility.yul\":402:408   */\n      dup5\n        /* \"#utility.yul\":358:429   */\n      tag_174\n      jump\t// in\n    tag_221:\n        /* \"#utility.yul\":214:436   */\n      swap3\n      swap2\n      pop\n      pop\n      jump\t// out\n        /* \"#utility.yul\":442:517   */\n    tag_175:\n        /* \"#utility.yul\":475:481   */\n      0x00\n        /* \"#utility.yul\":508:510   */\n      0x40\n        /* \"#utility.yul\":502:511   */\n      mload\n        /* \"#utility.yul\":492:511   */\n      swap1\n      pop\n        /* \"#utility.yul\":442:517   */\n      swap1\n      jump\t// out\n        /* \"#utility.yul\":523:640   */\n    tag_176:\n        /* \"#utility.yul\":632:633   */\n      0x00\n        /* \"#utility.yul\":629:630   */\n      dup1\n        /* \"#utility.yul\":622:634   */\n      revert\n        /* \"#utility.yul\":646:763   */\n    tag_177:\n        /* \"#utility.yul\":755:756   */\n      0x00\n        /* \"#utility.yul\":752:753   */\n      dup1\n        /* \"#utility.yul\":745:757   */\n      revert\n        /* \"#utility.yul\":769:891   */\n    tag_178:\n        /* \"#utility.yul\":842:866   */\n      tag_226\n        /* \"#utility.yul\":860:865   */\n      dup2\n        /* \"#utility.yul\":842:866   */\n      tag_173\n      jump\t// in\n    tag_226:\n        /* \"#utility.yul\":835:840   */\n      dup2\n        /* \"#utility.yul\":832:867   */\n      eq\n        /* \"#utility.yul\":822:885   */\n      tag_227\n      jumpi\n        /* \"#utility.yul\":881:882   */\n      0x00\n        /* \"#utility.yul\":878:879   */\n      dup1\n        /* \"#utility.yul\":871:883   */\n      revert\n        /* \"#utility.yul\":822:885   */\n    tag_227:\n        /* \"#utility.yul\":769:891   */\n      pop\n      jump\t// out\n        /* \"#utility.yul\":897:1036   */\n    tag_179:\n        /* \"#utility.yul\":943:948   */\n      0x00\n        /* \"#utility.yul\":981:987   */\n      dup2\n        /* \"#utility.yul\":968:988   */\n      calldataload\n        /* \"#utility.yul\":959:988   */\n      swap1\n      pop\n        /* \"#utility.yul\":997:1030   */\n      tag_229\n        /* \"#utility.yul\":1024:1029   */\n      dup2\n        /* \"#utility.yul\":997:1030   */\n      tag_178\n      jump\t// in\n    tag_229:\n        /* \"#utility.yul\":897:1036   */\n      swap3\n      swap2\n      pop\n      pop\n      jump\t// out\n        /* \"#utility.yul\":1042:1371   */\n    tag_27:\n        /* \"#utility.yul\":1101:1107   */\n      0x00\n        /* \"#utility.yul\":1150:1152   */\n      0x20\n        /* \"#utility.yul\":1138:1147   */\n      dup3\n        /* \"#utility.yul\":1129:1136   */\n      dup5\n        /* \"#utility.yul\":1125:1148   */\n      sub\n        /* \"#utility.yul\":1121:1153   */\n      slt\n        /* \"#utility.yul\":1118:1237   */\n      iszero\n      tag_231\n      jumpi\n        /* \"#utility.yul\":1156:1235   */\n      tag_232\n      tag_176\n      jump\t// in\n    tag_232:\n        /* \"#utility.yul\":1118:1237   */\n    tag_231:\n        /* \"#utility.yul\":1276:1277   */\n      0x00\n        /* \"#utility.yul\":1301:1354   */\n      tag_233\n        /* \"#utility.yul\":1346:1353   */\n      dup5\n        /* \"#utility.yul\":1337:1343   */\n      dup3\n        /* \"#utility.yul\":1326:1335   */\n      dup6\n        /* \"#utility.yul\":1322:1344   */\n      add\n        /* \"#utility.yul\":1301:1354   */\n      tag_179\n      jump\t// in\n    tag_233:\n        /* \"#utility.yul\":1291:1354   */\n      swap2\n      pop\n        /* \"#utility.yul\":1247:1364   */\n      pop\n        /* \"#utility.yul\":1042:1371   */\n      swap3\n      swap2\n      pop\n      pop\n      jump\t// out\n        /* \"#utility.yul\":1377:1503   */\n    tag_180:\n        /* \"#utility.yul\":1414:1421   */\n      0x00\n        /* \"#utility.yul\":1454:1496   */\n      0xffffffffffffffffffffffffffffffffffffffff\n        /* \"#utility.yul\":1447:1452   */\n      dup3\n        /* \"#utility.yul\":1443:1497   */\n      and\n        /* \"#utility.yul\":1432:1497   */\n      swap1\n      pop\n        /* \"#utility.yul\":1377:1503   */\n      swap2\n      swap1\n      pop\n      jump\t// out\n        /* \"#utility.yul\":1509:1605   */\n    tag_181:\n        /* \"#utility.yul\":1546:1553   */\n      0x00\n        /* \"#utility.yul\":1575:1599   */\n      tag_236\n        /* \"#utility.yul\":1593:1598   */\n      dup3\n        /* \"#utility.yul\":1575:1599   */\n      tag_180\n      jump\t// in\n    tag_236:\n        /* \"#utility.yul\":1564:1599   */\n      swap1\n      pop\n        /* \"#utility.yul\":1509:1605   */\n      swap2\n      swap1\n      pop\n      jump\t// out\n        /* \"#utility.yul\":1611:1733   */\n    tag_182:\n        /* \"#utility.yul\":1684:1708   */\n      tag_238\n        /* \"#utility.yul\":1702:1707   */\n      dup2\n        /* \"#utility.yul\":1684:1708   */\n      tag_181\n      jump\t// in\n    tag_238:\n        /* \"#utility.yul\":1677:1682   */\n      dup2\n        /* \"#utility.yul\":1674:1709   */\n      eq\n        /* \"#utility.yul\":1664:1727   */\n      tag_239\n      jumpi\n        /* \"#utility.yul\":1723:1724   */\n      0x00\n        /* \"#utility.yul\":1720:1721   */\n      dup1\n        /* \"#utility.yul\":1713:1725   */\n      revert\n        /* \"#utility.yul\":1664:1727   */\n    tag_239:\n        /* \"#utility.yul\":1611:1733   */\n      pop\n      jump\t// out\n        /* \"#utility.yul\":1739:1878   */\n    tag_183:\n        /* \"#utility.yul\":1785:1790   */\n      0x00\n        /* \"#utility.yul\":1823:1829   */\n      dup2\n        /* \"#utility.yul\":1810:1830   */\n      calldataload\n        /* \"#utility.yul\":1801:1830   */\n      swap1\n      pop\n        /* \"#utility.yul\":1839:1872   */\n      tag_241\n        /* \"#utility.yul\":1866:1871   */\n      dup2\n        /* \"#utility.yul\":1839:1872   */\n      tag_182\n      jump\t// in\n    tag_241:\n        /* \"#utility.yul\":1739:1878   */\n      swap3\n      swap2\n      pop\n      pop\n      jump\t// out\n        /* \"#utility.yul\":1884:2213   */\n    tag_42:\n        /* \"#utility.yul\":1943:1949   */\n      0x00\n        /* \"#utility.yul\":1992:1994   */\n      0x20\n        /* \"#utility.yul\":1980:1989   */\n      dup3\n        /* \"#utility.yul\":1971:1978   */\n      dup5\n        /* \"#utility.yul\":1967:1990   */\n      sub\n        /* \"#utility.yul\":1963:1995   */\n      slt\n        /* \"#utility.yul\":1960:2079   */\n      iszero\n      tag_243\n      jumpi\n        /* \"#utility.yul\":1998:2077   */\n      tag_244\n      tag_176\n      jump\t// in\n    tag_244:\n        /* \"#utility.yul\":1960:2079   */\n    tag_243:\n        /* \"#utility.yul\":2118:2119   */\n      0x00\n        /* \"#utility.yul\":2143:2196   */\n      tag_245\n        /* \"#utility.yul\":2188:2195   */\n      dup5\n        /* \"#utility.yul\":2179:2185   */\n      dup3\n        /* \"#utility.yul\":2168:2177   */\n      dup6\n        /* \"#utility.yul\":2164:2186   */\n      add\n        /* \"#utility.yul\":2143:2196   */\n      tag_183\n      jump\t// in\n    tag_245:\n        /* \"#utility.yul\":2133:2196   */\n      swap2\n      pop\n        /* \"#utility.yul\":2089:2206   */\n      pop\n        /* \"#utility.yul\":1884:2213   */\n      swap3\n      swap2\n      pop\n      pop\n      jump\t// out\n        /* \"#utility.yul\":2219:2323   */\n    tag_184:\n        /* \"#utility.yul\":2264:2271   */\n      0x00\n        /* \"#utility.yul\":2293:2317   */\n      tag_247\n        /* \"#utility.yul\":2311:2316   */\n      dup3\n        /* \"#utility.yul\":2293:2317   */\n      tag_180\n      jump\t// in\n    tag_247:\n        /* \"#utility.yul\":2282:2317   */\n      swap1\n      pop\n        /* \"#utility.yul\":2219:2323   */\n      swap2\n      swap1\n      pop\n      jump\t// out\n        /* \"#utility.yul\":2329:2467   */\n    tag_185:\n        /* \"#utility.yul\":2410:2442   */\n      tag_249\n        /* \"#utility.yul\":2436:2441   */\n      dup2\n        /* \"#utility.yul\":2410:2442   */\n      tag_184\n      jump\t// in\n    tag_249:\n        /* \"#utility.yul\":2403:2408   */\n      dup2\n        /* \"#utility.yul\":2400:2443   */\n      eq\n        /* \"#utility.yul\":2390:2461   */\n      tag_250\n      jumpi\n        /* \"#utility.yul\":2457:2458   */\n      0x00\n        /* \"#utility.yul\":2454:2455   */\n      dup1\n        /* \"#utility.yul\":2447:2459   */\n      revert\n        /* \"#utility.yul\":2390:2461   */\n    tag_250:\n        /* \"#utility.yul\":2329:2467   */\n      pop\n      jump\t// out\n        /* \"#utility.yul\":2473:2628   */\n    tag_186:\n        /* \"#utility.yul\":2527:2532   */\n      0x00\n        /* \"#utility.yul\":2565:2571   */\n      dup2\n        /* \"#utility.yul\":2552:2572   */\n      calldataload\n        /* \"#utility.yul\":2543:2572   */\n      swap1\n      pop\n        /* \"#utility.yul\":2581:2622   */\n      tag_252\n        /* \"#utility.yul\":2616:2621   */\n      dup2\n        /* \"#utility.yul\":2581:2622   */\n      tag_185\n      jump\t// in\n    tag_252:\n        /* \"#utility.yul\":2473:2628   */\n      swap3\n      swap2\n      pop\n      pop\n      jump\t// out\n        /* \"#utility.yul\":2634:2979   */\n    tag_49:\n        /* \"#utility.yul\":2701:2707   */\n      0x00\n        /* \"#utility.yul\":2750:2752   */\n      0x20\n        /* \"#utility.yul\":2738:2747   */\n      dup3\n        /* \"#utility.yul\":2729:2736   */\n      dup5\n        /* \"#utility.yul\":2725:2748   */\n      sub\n        /* \"#utility.yul\":2721:2753   */\n      slt\n        /* \"#utility.yul\":2718:2837   */\n      iszero\n      tag_254\n      jumpi\n        /* \"#utility.yul\":2756:2835   */\n      tag_255\n      tag_176\n      jump\t// in\n    tag_255:\n        /* \"#utility.yul\":2718:2837   */\n    tag_254:\n        /* \"#utility.yul\":2876:2877   */\n      0x00\n        /* \"#utility.yul\":2901:2962   */\n      tag_256\n        /* \"#utility.yul\":2954:2961   */\n      dup5\n        /* \"#utility.yul\":2945:2951   */\n      dup3\n        /* \"#utility.yul\":2934:2943   */\n      dup6\n        /* \"#utility.yul\":2930:2952   */\n      add\n        /* \"#utility.yul\":2901:2962   */\n      tag_186\n      jump\t// in\n    tag_256:\n        /* \"#utility.yul\":2891:2962   */\n      swap2\n      pop\n        /* \"#utility.yul\":2847:2972   */\n      pop\n        /* \"#utility.yul\":2634:2979   */\n      swap3\n      swap2\n      pop\n      pop\n      jump\t// out\n        /* \"#utility.yul\":2985:3103   */\n    tag_187:\n        /* \"#utility.yul\":3072:3096   */\n      tag_258\n        /* \"#utility.yul\":3090:3095   */\n      dup2\n        /* \"#utility.yul\":3072:3096   */\n      tag_181\n      jump\t// in\n    tag_258:\n        /* \"#utility.yul\":3067:3070   */\n      dup3\n        /* \"#utility.yul\":3060:3097   */\n      mstore\n        /* \"#utility.yul\":2985:3103   */\n      pop\n      pop\n      jump\t// out\n        /* \"#utility.yul\":3109:3331   */\n    tag_55:\n        /* \"#utility.yul\":3202:3206   */\n      0x00\n        /* \"#utility.yul\":3240:3242   */\n      0x20\n        /* \"#utility.yul\":3229:3238   */\n      dup3\n        /* \"#utility.yul\":3225:3243   */\n      add\n        /* \"#utility.yul\":3217:3243   */\n      swap1\n      pop\n        /* \"#utility.yul\":3253:3324   */\n      tag_260\n        /* \"#utility.yul\":3321:3322   */\n      0x00\n        /* \"#utility.yul\":3310:3319   */\n      dup4\n        /* \"#utility.yul\":3306:3323   */\n      add\n        /* \"#utility.yul\":3297:3303   */\n      dup5\n        /* \"#utility.yul\":3253:3324   */\n      tag_187\n      jump\t// in\n    tag_260:\n        /* \"#utility.yul\":3109:3331   */\n      swap3\n      swap2\n      pop\n      pop\n      jump\t// out\n        /* \"#utility.yul\":3337:3451   */\n    tag_188:\n        /* \"#utility.yul\":3404:3410   */\n      0x00\n        /* \"#utility.yul\":3438:3443   */\n      dup2\n        /* \"#utility.yul\":3432:3444   */\n      mload\n        /* \"#utility.yul\":3422:3444   */\n      swap1\n      pop\n        /* \"#utility.yul\":3337:3451   */\n      swap2\n      swap1\n      pop\n      jump\t// out\n        /* \"#utility.yul\":3457:3641   */\n    tag_189:\n        /* \"#utility.yul\":3556:3567   */\n      0x00\n        /* \"#utility.yul\":3590:3596   */\n      dup3\n        /* \"#utility.yul\":3585:3588   */\n      dup3\n        /* \"#utility.yul\":3578:3597   */\n      mstore\n        /* \"#utility.yul\":3630:3634   */\n      0x20\n        /* \"#utility.yul\":3625:3628   */\n      dup3\n        /* \"#utility.yul\":3621:3635   */\n      add\n        /* \"#utility.yul\":3606:3635   */\n      swap1\n      pop\n        /* \"#utility.yul\":3457:3641   */\n      swap3\n      swap2\n      pop\n      pop\n      jump\t// out\n        /* \"#utility.yul\":3647:3779   */\n    tag_190:\n        /* \"#utility.yul\":3714:3718   */\n      0x00\n        /* \"#utility.yul\":3737:3740   */\n      dup2\n        /* \"#utility.yul\":3729:3740   */\n      swap1\n      pop\n        /* \"#utility.yul\":3767:3771   */\n      0x20\n        /* \"#utility.yul\":3762:3765   */\n      dup3\n        /* \"#utility.yul\":3758:3772   */\n      add\n        /* \"#utility.yul\":3750:3772   */\n      swap1\n      pop\n        /* \"#utility.yul\":3647:3779   */\n      swap2\n      swap1\n      pop\n      jump\t// out\n        /* \"#utility.yul\":3785:3893   */\n    tag_191:\n        /* \"#utility.yul\":3862:3886   */\n      tag_265\n        /* \"#utility.yul\":3880:3885   */\n      dup2\n        /* \"#utility.yul\":3862:3886   */\n      tag_181\n      jump\t// in\n    tag_265:\n        /* \"#utility.yul\":3857:3860   */\n      dup3\n        /* \"#utility.yul\":3850:3887   */\n      mstore\n        /* \"#utility.yul\":3785:3893   */\n      pop\n      pop\n      jump\t// out\n        /* \"#utility.yul\":3899:4078   */\n    tag_192:\n        /* \"#utility.yul\":3968:3978   */\n      0x00\n        /* \"#utility.yul\":3989:4035   */\n      tag_267\n        /* \"#utility.yul\":4031:4034   */\n      dup4\n        /* \"#utility.yul\":4023:4029   */\n      dup4\n        /* \"#utility.yul\":3989:4035   */\n      tag_191\n      jump\t// in\n    tag_267:\n        /* \"#utility.yul\":4067:4071   */\n      0x20\n        /* \"#utility.yul\":4062:4065   */\n      dup4\n        /* \"#utility.yul\":4058:4072   */\n      add\n        /* \"#utility.yul\":4044:4072   */\n      swap1\n      pop\n        /* \"#utility.yul\":3899:4078   */\n      swap3\n      swap2\n      pop\n      pop\n      jump\t// out\n        /* \"#utility.yul\":4084:4197   */\n    tag_193:\n        /* \"#utility.yul\":4154:4158   */\n      0x00\n        /* \"#utility.yul\":4186:4190   */\n      0x20\n        /* \"#utility.yul\":4181:4184   */\n      dup3\n        /* \"#utility.yul\":4177:4191   */\n      add\n        /* \"#utility.yul\":4169:4191   */\n      swap1\n      pop\n        /* \"#utility.yul\":4084:4197   */\n      swap2\n      swap1\n      pop\n      jump\t// out\n        /* \"#utility.yul\":4233:4965   */\n    tag_194:\n        /* \"#utility.yul\":4352:4355   */\n      0x00\n        /* \"#utility.yul\":4381:4435   */\n      tag_270\n        /* \"#utility.yul\":4429:4434   */\n      dup3\n        /* \"#utility.yul\":4381:4435   */\n      tag_188\n      jump\t// in\n    tag_270:\n        /* \"#utility.yul\":4451:4537   */\n      tag_271\n        /* \"#utility.yul\":4530:4536   */\n      dup2\n        /* \"#utility.yul\":4525:4528   */\n      dup6\n        /* \"#utility.yul\":4451:4537   */\n      tag_189\n      jump\t// in\n    tag_271:\n        /* \"#utility.yul\":4444:4537   */\n      swap4\n      pop\n        /* \"#utility.yul\":4561:4617   */\n      tag_272\n        /* \"#utility.yul\":4611:4616   */\n      dup4\n        /* \"#utility.yul\":4561:4617   */\n      tag_190\n      jump\t// in\n    tag_272:\n        /* \"#utility.yul\":4640:4647   */\n      dup1\n        /* \"#utility.yul\":4671:4672   */\n      0x00\n        /* \"#utility.yul\":4656:4940   */\n    tag_273:\n        /* \"#utility.yul\":4681:4687   */\n      dup4\n        /* \"#utility.yul\":4678:4679   */\n      dup2\n        /* \"#utility.yul\":4675:4688   */\n      lt\n        /* \"#utility.yul\":4656:4940   */\n      iszero\n      tag_275\n      jumpi\n        /* \"#utility.yul\":4757:4763   */\n      dup2\n        /* \"#utility.yul\":4751:4764   */\n      mload\n        /* \"#utility.yul\":4784:4847   */\n      tag_276\n        /* \"#utility.yul\":4843:4846   */\n      dup9\n        /* \"#utility.yul\":4828:4841   */\n      dup3\n        /* \"#utility.yul\":4784:4847   */\n      tag_192\n      jump\t// in\n    tag_276:\n        /* \"#utility.yul\":4777:4847   */\n      swap8\n      pop\n        /* \"#utility.yul\":4870:4930   */\n      tag_277\n        /* \"#utility.yul\":4923:4929   */\n      dup4\n        /* \"#utility.yul\":4870:4930   */\n      tag_193\n      jump\t// in\n    tag_277:\n        /* \"#utility.yul\":4860:4930   */\n      swap3\n      pop\n        /* \"#utility.yul\":4716:4940   */\n      pop\n        /* \"#utility.yul\":4703:4704   */\n      0x01\n        /* \"#utility.yul\":4700:4701   */\n      dup2\n        /* \"#utility.yul\":4696:4705   */\n      add\n        /* \"#utility.yul\":4691:4705   */\n      swap1\n      pop\n        /* \"#utility.yul\":4656:4940   */\n      jump(tag_273)\n    tag_275:\n        /* \"#utility.yul\":4660:4674   */\n      pop\n        /* \"#utility.yul\":4956:4959   */\n      dup6\n        /* \"#utility.yul\":4949:4959   */\n      swap4\n      pop\n        /* \"#utility.yul\":4357:4965   */\n      pop\n      pop\n      pop\n        /* \"#utility.yul\":4233:4965   */\n      swap3\n      swap2\n      pop\n      pop\n      jump\t// out\n        /* \"#utility.yul\":4971:5344   */\n    tag_60:\n        /* \"#utility.yul\":5114:5118   */\n      0x00\n        /* \"#utility.yul\":5152:5154   */\n      0x20\n        /* \"#utility.yul\":5141:5150   */\n      dup3\n        /* \"#utility.yul\":5137:5155   */\n      add\n        /* \"#utility.yul\":5129:5155   */\n      swap1\n      pop\n        /* \"#utility.yul\":5201:5210   */\n      dup2\n        /* \"#utility.yul\":5195:5199   */\n      dup2\n        /* \"#utility.yul\":5191:5211   */\n      sub\n        /* \"#utility.yul\":5187:5188   */\n      0x00\n        /* \"#utility.yul\":5176:5185   */\n      dup4\n        /* \"#utility.yul\":5172:5189   */\n      add\n        /* \"#utility.yul\":5165:5212   */\n      mstore\n        /* \"#utility.yul\":5229:5337   */\n      tag_279\n        /* \"#utility.yul\":5332:5336   */\n      dup2\n        /* \"#utility.yul\":5323:5329   */\n      dup5\n        /* \"#utility.yul\":5229:5337   */\n      tag_194\n      jump\t// in\n    tag_279:\n        /* \"#utility.yul\":5221:5337   */\n      swap1\n      pop\n        /* \"#utility.yul\":4971:5344   */\n      swap3\n      swap2\n      pop\n      pop\n      jump\t// out\n        /* \"#utility.yul\":5350:5467   */\n    tag_195:\n        /* \"#utility.yul\":5459:5460   */\n      0x00\n        /* \"#utility.yul\":5456:5457   */\n      dup1\n        /* \"#utility.yul\":5449:5461   */\n      revert\n        /* \"#utility.yul\":5473:5575   */\n    tag_196:\n        /* \"#utility.yul\":5514:5520   */\n      0x00\n        /* \"#utility.yul\":5565:5567   */\n      0x1f\n        /* \"#utility.yul\":5561:5568   */\n      not\n        /* \"#utility.yul\":5556:5558   */\n      0x1f\n        /* \"#utility.yul\":5549:5554   */\n      dup4\n        /* \"#utility.yul\":5545:5559   */\n      add\n        /* \"#utility.yul\":5541:5569   */\n      and\n        /* \"#utility.yul\":5531:5569   */\n      swap1\n      pop\n        /* \"#utility.yul\":5473:5575   */\n      swap2\n      swap1\n      pop\n      jump\t// out\n        /* \"#utility.yul\":5581:5761   */\n    tag_197:\n        /* \"#utility.yul\":5629:5706   */\n      0x4e487b7100000000000000000000000000000000000000000000000000000000\n        /* \"#utility.yul\":5626:5627   */\n      0x00\n        /* \"#utility.yul\":5619:5707   */\n      mstore\n        /* \"#utility.yul\":5726:5730   */\n      0x41\n        /* \"#utility.yul\":5723:5724   */\n      0x04\n        /* \"#utility.yul\":5716:5731   */\n      mstore\n        /* \"#utility.yul\":5750:5754   */\n      0x24\n        /* \"#utility.yul\":5747:5748   */\n      0x00\n        /* \"#utility.yul\":5740:5755   */\n      revert\n        /* \"#utility.yul\":5767:6048   */\n    tag_198:\n        /* \"#utility.yul\":5850:5877   */\n      tag_284\n        /* \"#utility.yul\":5872:5876   */\n      dup3\n        /* \"#utility.yul\":5850:5877   */\n      tag_196\n      jump\t// in\n    tag_284:\n        /* \"#utility.yul\":5842:5848   */\n      dup2\n        /* \"#utility.yul\":5838:5878   */\n      add\n        /* \"#utility.yul\":5980:5986   */\n      dup2\n        /* \"#utility.yul\":5968:5978   */\n      dup2\n        /* \"#utility.yul\":5965:5987   */\n      lt\n        /* \"#utility.yul\":5944:5962   */\n      0xffffffffffffffff\n        /* \"#utility.yul\":5932:5942   */\n      dup3\n        /* \"#utility.yul\":5929:5963   */\n      gt\n        /* \"#utility.yul\":5926:5988   */\n      or\n        /* \"#utility.yul\":5923:6011   */\n      iszero\n      tag_285\n      jumpi\n        /* \"#utility.yul\":5991:6009   */\n      tag_286\n      tag_197\n      jump\t// in\n    tag_286:\n        /* \"#utility.yul\":5923:6011   */\n    tag_285:\n        /* \"#utility.yul\":6031:6041   */\n      dup1\n        /* \"#utility.yul\":6027:6029   */\n      0x40\n        /* \"#utility.yul\":6020:6042   */\n      mstore\n        /* \"#utility.yul\":5810:6048   */\n      pop\n        /* \"#utility.yul\":5767:6048   */\n      pop\n      pop\n      jump\t// out\n        /* \"#utility.yul\":6054:6183   */\n    tag_199:\n        /* \"#utility.yul\":6088:6094   */\n      0x00\n        /* \"#utility.yul\":6115:6135   */\n      tag_288\n      tag_175\n      jump\t// in\n    tag_288:\n        /* \"#utility.yul\":6105:6135   */\n      swap1\n      pop\n        /* \"#utility.yul\":6144:6177   */\n      tag_289\n        /* \"#utility.yul\":6172:6176   */\n      dup3\n        /* \"#utility.yul\":6164:6170   */\n      dup3\n        /* \"#utility.yul\":6144:6177   */\n      tag_198\n      jump\t// in\n    tag_289:\n        /* \"#utility.yul\":6054:6183   */\n      swap2\n      swap1\n      pop\n      jump\t// out\n        /* \"#utility.yul\":6189:6500   */\n    tag_200:\n        /* \"#utility.yul\":6266:6270   */\n      0x00\n        /* \"#utility.yul\":6356:6374   */\n      0xffffffffffffffff\n        /* \"#utility.yul\":6348:6354   */\n      dup3\n        /* \"#utility.yul\":6345:6375   */\n      gt\n        /* \"#utility.yul\":6342:6398   */\n      iszero\n      tag_291\n      jumpi\n        /* \"#utility.yul\":6378:6396   */\n      tag_292\n      tag_197\n      jump\t// in\n    tag_292:\n        /* \"#utility.yul\":6342:6398   */\n    tag_291:\n        /* \"#utility.yul\":6428:6432   */\n      0x20\n        /* \"#utility.yul\":6420:6426   */\n      dup3\n        /* \"#utility.yul\":6416:6433   */\n      mul\n        /* \"#utility.yul\":6408:6433   */\n      swap1\n      pop\n        /* \"#utility.yul\":6488:6492   */\n      0x20\n        /* \"#utility.yul\":6482:6486   */\n      dup2\n        /* \"#utility.yul\":6478:6493   */\n      add\n        /* \"#utility.yul\":6470:6493   */\n      swap1\n      pop\n        /* \"#utility.yul\":6189:6500   */\n      swap2\n      swap1\n      pop\n      jump\t// out\n        /* \"#utility.yul\":6506:6623   */\n    tag_201:\n        /* \"#utility.yul\":6615:6616   */\n      0x00\n        /* \"#utility.yul\":6612:6613   */\n      dup1\n        /* \"#utility.yul\":6605:6617   */\n      revert\n        /* \"#utility.yul\":6646:7356   */\n    tag_202:\n        /* \"#utility.yul\":6742:6747   */\n      0x00\n        /* \"#utility.yul\":6767:6848   */\n      tag_295\n        /* \"#utility.yul\":6783:6847   */\n      tag_296\n        /* \"#utility.yul\":6840:6846   */\n      dup5\n        /* \"#utility.yul\":6783:6847   */\n      tag_200\n      jump\t// in\n    tag_296:\n        /* \"#utility.yul\":6767:6848   */\n      tag_199\n      jump\t// in\n    tag_295:\n        /* \"#utility.yul\":6758:6848   */\n      swap1\n      pop\n        /* \"#utility.yul\":6868:6873   */\n      dup1\n        /* \"#utility.yul\":6897:6903   */\n      dup4\n        /* \"#utility.yul\":6890:6895   */\n      dup3\n        /* \"#utility.yul\":6883:6904   */\n      mstore\n        /* \"#utility.yul\":6931:6935   */\n      0x20\n        /* \"#utility.yul\":6924:6929   */\n      dup3\n        /* \"#utility.yul\":6920:6936   */\n      add\n        /* \"#utility.yul\":6913:6936   */\n      swap1\n      pop\n        /* \"#utility.yul\":6984:6988   */\n      0x20\n        /* \"#utility.yul\":6976:6982   */\n      dup5\n        /* \"#utility.yul\":6972:6989   */\n      mul\n        /* \"#utility.yul\":6964:6970   */\n      dup4\n        /* \"#utility.yul\":6960:6990   */\n      add\n        /* \"#utility.yul\":7013:7016   */\n      dup6\n        /* \"#utility.yul\":7005:7011   */\n      dup2\n        /* \"#utility.yul\":7002:7017   */\n      gt\n        /* \"#utility.yul\":6999:7121   */\n      iszero\n      tag_297\n      jumpi\n        /* \"#utility.yul\":7032:7111   */\n      tag_298\n      tag_201\n      jump\t// in\n    tag_298:\n        /* \"#utility.yul\":6999:7121   */\n    tag_297:\n        /* \"#utility.yul\":7147:7153   */\n      dup4\n        /* \"#utility.yul\":7130:7350   */\n    tag_299:\n        /* \"#utility.yul\":7164:7170   */\n      dup2\n        /* \"#utility.yul\":7159:7162   */\n      dup2\n        /* \"#utility.yul\":7156:7171   */\n      lt\n        /* \"#utility.yul\":7130:7350   */\n      iszero\n      tag_301\n      jumpi\n        /* \"#utility.yul\":7239:7242   */\n      dup1\n        /* \"#utility.yul\":7268:7305   */\n      tag_302\n        /* \"#utility.yul\":7301:7304   */\n      dup9\n        /* \"#utility.yul\":7289:7299   */\n      dup3\n        /* \"#utility.yul\":7268:7305   */\n      tag_183\n      jump\t// in\n    tag_302:\n        /* \"#utility.yul\":7263:7266   */\n      dup5\n        /* \"#utility.yul\":7256:7306   */\n      mstore\n        /* \"#utility.yul\":7335:7339   */\n      0x20\n        /* \"#utility.yul\":7330:7333   */\n      dup5\n        /* \"#utility.yul\":7326:7340   */\n      add\n        /* \"#utility.yul\":7319:7340   */\n      swap4\n      pop\n        /* \"#utility.yul\":7206:7350   */\n      pop\n        /* \"#utility.yul\":7190:7194   */\n      0x20\n        /* \"#utility.yul\":7185:7188   */\n      dup2\n        /* \"#utility.yul\":7181:7195   */\n      add\n        /* \"#utility.yul\":7174:7195   */\n      swap1\n      pop\n        /* \"#utility.yul\":7130:7350   */\n      jump(tag_299)\n    tag_301:\n        /* \"#utility.yul\":7134:7155   */\n      pop\n        /* \"#utility.yul\":6748:7356   */\n      pop\n      pop\n        /* \"#utility.yul\":6646:7356   */\n      swap4\n      swap3\n      pop\n      pop\n      pop\n      jump\t// out\n        /* \"#utility.yul\":7379:7749   */\n    tag_203:\n        /* \"#utility.yul\":7450:7455   */\n      0x00\n        /* \"#utility.yul\":7499:7502   */\n      dup3\n        /* \"#utility.yul\":7492:7496   */\n      0x1f\n        /* \"#utility.yul\":7484:7490   */\n      dup4\n        /* \"#utility.yul\":7480:7497   */\n      add\n        /* \"#utility.yul\":7476:7503   */\n      slt\n        /* \"#utility.yul\":7466:7588   */\n      tag_304\n      jumpi\n        /* \"#utility.yul\":7507:7586   */\n      tag_305\n      tag_195\n      jump\t// in\n    tag_305:\n        /* \"#utility.yul\":7466:7588   */\n    tag_304:\n        /* \"#utility.yul\":7624:7630   */\n      dup2\n        /* \"#utility.yul\":7611:7631   */\n      calldataload\n        /* \"#utility.yul\":7649:7743   */\n      tag_306\n        /* \"#utility.yul\":7739:7742   */\n      dup5\n        /* \"#utility.yul\":7731:7737   */\n      dup3\n        /* \"#utility.yul\":7724:7728   */\n      0x20\n        /* \"#utility.yul\":7716:7722   */\n      dup7\n        /* \"#utility.yul\":7712:7729   */\n      add\n        /* \"#utility.yul\":7649:7743   */\n      tag_202\n      jump\t// in\n    tag_306:\n        /* \"#utility.yul\":7640:7743   */\n      swap2\n      pop\n        /* \"#utility.yul\":7456:7749   */\n      pop\n        /* \"#utility.yul\":7379:7749   */\n      swap3\n      swap2\n      pop\n      pop\n      jump\t// out\n        /* \"#utility.yul\":7755:8294   */\n    tag_76:\n        /* \"#utility.yul\":7839:7845   */\n      0x00\n        /* \"#utility.yul\":7888:7890   */\n      0x20\n        /* \"#utility.yul\":7876:7885   */\n      dup3\n        /* \"#utility.yul\":7867:7874   */\n      dup5\n        /* \"#utility.yul\":7863:7886   */\n      sub\n        /* \"#utility.yul\":7859:7891   */\n      slt\n        /* \"#utility.yul\":7856:7975   */\n      iszero\n      tag_308\n      jumpi\n        /* \"#utility.yul\":7894:7973   */\n      tag_309\n      tag_176\n      jump\t// in\n    tag_309:\n        /* \"#utility.yul\":7856:7975   */\n    tag_308:\n        /* \"#utility.yul\":8042:8043   */\n      0x00\n        /* \"#utility.yul\":8031:8040   */\n      dup3\n        /* \"#utility.yul\":8027:8044   */\n      add\n        /* \"#utility.yul\":8014:8045   */\n      calldataload\n        /* \"#utility.yul\":8072:8090   */\n      0xffffffffffffffff\n        /* \"#utility.yul\":8064:8070   */\n      dup2\n        /* \"#utility.yul\":8061:8091   */\n      gt\n        /* \"#utility.yul\":8058:8175   */\n      iszero\n      tag_310\n      jumpi\n        /* \"#utility.yul\":8094:8173   */\n      tag_311\n      tag_177\n      jump\t// in\n    tag_311:\n        /* \"#utility.yul\":8058:8175   */\n    tag_310:\n        /* \"#utility.yul\":8199:8277   */\n      tag_312\n        /* \"#utility.yul\":8269:8276   */\n      dup5\n        /* \"#utility.yul\":8260:8266   */\n      dup3\n        /* \"#utility.yul\":8249:8258   */\n      dup6\n        /* \"#utility.yul\":8245:8267   */\n      add\n        /* \"#utility.yul\":8199:8277   */\n      tag_203\n      jump\t// in\n    tag_312:\n        /* \"#utility.yul\":8189:8277   */\n      swap2\n      pop\n        /* \"#utility.yul\":7985:8287   */\n      pop\n        /* \"#utility.yul\":7755:8294   */\n      swap3\n      swap2\n      pop\n      pop\n      jump\t// out\n        /* \"#utility.yul\":8300:8469   */\n    tag_204:\n        /* \"#utility.yul\":8384:8395   */\n      0x00\n        /* \"#utility.yul\":8418:8424   */\n      dup3\n        /* \"#utility.yul\":8413:8416   */\n      dup3\n        /* \"#utility.yul\":8406:8425   */\n      mstore\n        /* \"#utility.yul\":8458:8462   */\n      0x20\n        /* \"#utility.yul\":8453:8456   */\n      dup3\n        /* \"#utility.yul\":8449:8463   */\n      add\n        /* \"#utility.yul\":8434:8463   */\n      swap1\n      pop\n        /* \"#utility.yul\":8300:8469   */\n      swap3\n      swap2\n      pop\n      pop\n      jump\t// out\n        /* \"#utility.yul\":8475:8639   */\n    tag_205:\n        /* \"#utility.yul\":8615:8631   */\n      0x496e76616c696420416d6f756e74000000000000000000000000000000000000\n        /* \"#utility.yul\":8611:8612   */\n      0x00\n        /* \"#utility.yul\":8603:8609   */\n      dup3\n        /* \"#utility.yul\":8599:8613   */\n      add\n        /* \"#utility.yul\":8592:8632   */\n      mstore\n        /* \"#utility.yul\":8475:8639   */\n      pop\n      jump\t// out\n        /* \"#utility.yul\":8645:9011   */\n    tag_206:\n        /* \"#utility.yul\":8787:8790   */\n      0x00\n        /* \"#utility.yul\":8808:8875   */\n      tag_316\n        /* \"#utility.yul\":8872:8874   */\n      0x0e\n        /* \"#utility.yul\":8867:8870   */\n      dup4\n        /* \"#utility.yul\":8808:8875   */\n      tag_204\n      jump\t// in\n    tag_316:\n        /* \"#utility.yul\":8801:8875   */\n      swap2\n      pop\n        /* \"#utility.yul\":8884:8977   */\n      tag_317\n        /* \"#utility.yul\":8973:8976   */\n      dup3\n        /* \"#utility.yul\":8884:8977   */\n      tag_205\n      jump\t// in\n    tag_317:\n        /* \"#utility.yul\":9002:9004   */\n      0x20\n        /* \"#utility.yul\":8997:9000   */\n      dup3\n        /* \"#utility.yul\":8993:9005   */\n      add\n        /* \"#utility.yul\":8986:9005   */\n      swap1\n      pop\n        /* \"#utility.yul\":8645:9011   */\n      swap2\n      swap1\n      pop\n      jump\t// out\n        /* \"#utility.yul\":9017:9436   */\n    tag_87:\n        /* \"#utility.yul\":9183:9187   */\n      0x00\n        /* \"#utility.yul\":9221:9223   */\n      0x20\n        /* \"#utility.yul\":9210:9219   */\n      dup3\n        /* \"#utility.yul\":9206:9224   */\n      add\n        /* \"#utility.yul\":9198:9224   */\n      swap1\n      pop\n        /* \"#utility.yul\":9270:9279   */\n      dup2\n        /* \"#utility.yul\":9264:9268   */\n      dup2\n        /* \"#utility.yul\":9260:9280   */\n      sub\n        /* \"#utility.yul\":9256:9257   */\n      0x00\n        /* \"#utility.yul\":9245:9254   */\n      dup4\n        /* \"#utility.yul\":9241:9258   */\n      add\n        /* \"#utility.yul\":9234:9281   */\n      mstore\n        /* \"#utility.yul\":9298:9429   */\n      tag_319\n        /* \"#utility.yul\":9424:9428   */\n      dup2\n        /* \"#utility.yul\":9298:9429   */\n      tag_206\n      jump\t// in\n    tag_319:\n        /* \"#utility.yul\":9290:9429   */\n      swap1\n      pop\n        /* \"#utility.yul\":9017:9436   */\n      swap2\n      swap1\n      pop\n      jump\t// out\n        /* \"#utility.yul\":9442:9622   */\n    tag_207:\n        /* \"#utility.yul\":9490:9567   */\n      0x4e487b7100000000000000000000000000000000000000000000000000000000\n        /* \"#utility.yul\":9487:9488   */\n      0x00\n        /* \"#utility.yul\":9480:9568   */\n      mstore\n        /* \"#utility.yul\":9587:9591   */\n      0x11\n        /* \"#utility.yul\":9584:9585   */\n      0x04\n        /* \"#utility.yul\":9577:9592   */\n      mstore\n        /* \"#utility.yul\":9611:9615   */\n      0x24\n        /* \"#utility.yul\":9608:9609   */\n      0x00\n        /* \"#utility.yul\":9601:9616   */\n      revert\n        /* \"#utility.yul\":9628:9819   */\n    tag_92:\n        /* \"#utility.yul\":9668:9671   */\n      0x00\n        /* \"#utility.yul\":9687:9707   */\n      tag_322\n        /* \"#utility.yul\":9705:9706   */\n      dup3\n        /* \"#utility.yul\":9687:9707   */\n      tag_173\n      jump\t// in\n    tag_322:\n        /* \"#utility.yul\":9682:9707   */\n      swap2\n      pop\n        /* \"#utility.yul\":9721:9741   */\n      tag_323\n        /* \"#utility.yul\":9739:9740   */\n      dup4\n        /* \"#utility.yul\":9721:9741   */\n      tag_173\n      jump\t// in\n    tag_323:\n        /* \"#utility.yul\":9716:9741   */\n      swap3\n      pop\n        /* \"#utility.yul\":9764:9765   */\n      dup3\n        /* \"#utility.yul\":9761:9762   */\n      dup3\n        /* \"#utility.yul\":9757:9766   */\n      add\n        /* \"#utility.yul\":9750:9766   */\n      swap1\n      pop\n        /* \"#utility.yul\":9785:9788   */\n      dup1\n        /* \"#utility.yul\":9782:9783   */\n      dup3\n        /* \"#utility.yul\":9779:9789   */\n      gt\n        /* \"#utility.yul\":9776:9812   */\n      iszero\n      tag_324\n      jumpi\n        /* \"#utility.yul\":9792:9810   */\n      tag_325\n      tag_207\n      jump\t// in\n    tag_325:\n        /* \"#utility.yul\":9776:9812   */\n    tag_324:\n        /* \"#utility.yul\":9628:9819   */\n      swap3\n      swap2\n      pop\n      pop\n      jump\t// out\n        /* \"#utility.yul\":9825:9994   */\n    tag_208:\n        /* \"#utility.yul\":9965:9986   */\n      0x496e646578206f7574206f6620626f756e647300000000000000000000000000\n        /* \"#utility.yul\":9961:9962   */\n      0x00\n        /* \"#utility.yul\":9953:9959   */\n      dup3\n        /* \"#utility.yul\":9949:9963   */\n      add\n        /* \"#utility.yul\":9942:9987   */\n      mstore\n        /* \"#utility.yul\":9825:9994   */\n      pop\n      jump\t// out\n        /* \"#utility.yul\":10000:10366   */\n    tag_209:\n        /* \"#utility.yul\":10142:10145   */\n      0x00\n        /* \"#utility.yul\":10163:10230   */\n      tag_328\n        /* \"#utility.yul\":10227:10229   */\n      0x13\n        /* \"#utility.yul\":10222:10225   */\n      dup4\n        /* \"#utility.yul\":10163:10230   */\n      tag_204\n      jump\t// in\n    tag_328:\n        /* \"#utility.yul\":10156:10230   */\n      swap2\n      pop\n        /* \"#utility.yul\":10239:10332   */\n      tag_329\n        /* \"#utility.yul\":10328:10331   */\n      dup3\n        /* \"#utility.yul\":10239:10332   */\n      tag_208\n      jump\t// in\n    tag_329:\n        /* \"#utility.yul\":10357:10359   */\n      0x20\n        /* \"#utility.yul\":10352:10355   */\n      dup3\n        /* \"#utility.yul\":10348:10360   */\n      add\n        /* \"#utility.yul\":10341:10360   */\n      swap1\n      pop\n        /* \"#utility.yul\":10000:10366   */\n      swap2\n      swap1\n      pop\n      jump\t// out\n        /* \"#utility.yul\":10372:10791   */\n    tag_99:\n        /* \"#utility.yul\":10538:10542   */\n      0x00\n        /* \"#utility.yul\":10576:10578   */\n      0x20\n        /* \"#utility.yul\":10565:10574   */\n      dup3\n        /* \"#utility.yul\":10561:10579   */\n      add\n        /* \"#utility.yul\":10553:10579   */\n      swap1\n      pop\n        /* \"#utility.yul\":10625:10634   */\n      dup2\n        /* \"#utility.yul\":10619:10623   */\n      dup2\n        /* \"#utility.yul\":10615:10635   */\n      sub\n        /* \"#utility.yul\":10611:10612   */\n      0x00\n        /* \"#utility.yul\":10600:10609   */\n      dup4\n        /* \"#utility.yul\":10596:10613   */\n      add\n        /* \"#utility.yul\":10589:10636   */\n      mstore\n        /* \"#utility.yul\":10653:10784   */\n      tag_331\n        /* \"#utility.yul\":10779:10783   */\n      dup2\n        /* \"#utility.yul\":10653:10784   */\n      tag_209\n      jump\t// in\n    tag_331:\n        /* \"#utility.yul\":10645:10784   */\n      swap1\n      pop\n        /* \"#utility.yul\":10372:10791   */\n      swap2\n      swap1\n      pop\n      jump\t// out\n        /* \"#utility.yul\":10797:10991   */\n    tag_104:\n        /* \"#utility.yul\":10837:10841   */\n      0x00\n        /* \"#utility.yul\":10857:10877   */\n      tag_333\n        /* \"#utility.yul\":10875:10876   */\n      dup3\n        /* \"#utility.yul\":10857:10877   */\n      tag_173\n      jump\t// in\n    tag_333:\n        /* \"#utility.yul\":10852:10877   */\n      swap2\n      pop\n        /* \"#utility.yul\":10891:10911   */\n      tag_334\n        /* \"#utility.yul\":10909:10910   */\n      dup4\n        /* \"#utility.yul\":10891:10911   */\n      tag_173\n      jump\t// in\n    tag_334:\n        /* \"#utility.yul\":10886:10911   */\n      swap3\n      pop\n        /* \"#utility.yul\":10935:10936   */\n      dup3\n        /* \"#utility.yul\":10932:10933   */\n      dup3\n        /* \"#utility.yul\":10928:10937   */\n      sub\n        /* \"#utility.yul\":10920:10937   */\n      swap1\n      pop\n        /* \"#utility.yul\":10959:10960   */\n      dup2\n        /* \"#utility.yul\":10953:10957   */\n      dup2\n        /* \"#utility.yul\":10950:10961   */\n      gt\n        /* \"#utility.yul\":10947:10984   */\n      iszero\n      tag_335\n      jumpi\n        /* \"#utility.yul\":10964:10982   */\n      tag_336\n      tag_207\n      jump\t// in\n    tag_336:\n        /* \"#utility.yul\":10947:10984   */\n    tag_335:\n        /* \"#utility.yul\":10797:10991   */\n      swap3\n      swap2\n      pop\n      pop\n      jump\t// out\n        /* \"#utility.yul\":10997:11177   */\n    tag_108:\n        /* \"#utility.yul\":11045:11122   */\n      0x4e487b7100000000000000000000000000000000000000000000000000000000\n        /* \"#utility.yul\":11042:11043   */\n      0x00\n        /* \"#utility.yul\":11035:11123   */\n      mstore\n        /* \"#utility.yul\":11142:11146   */\n      0x32\n        /* \"#utility.yul\":11139:11140   */\n      0x04\n        /* \"#utility.yul\":11132:11147   */\n      mstore\n        /* \"#utility.yul\":11166:11170   */\n      0x24\n        /* \"#utility.yul\":11163:11164   */\n      0x00\n        /* \"#utility.yul\":11156:11171   */\n      revert\n        /* \"#utility.yul\":11183:11416   */\n    tag_114:\n        /* \"#utility.yul\":11222:11225   */\n      0x00\n        /* \"#utility.yul\":11245:11269   */\n      tag_339\n        /* \"#utility.yul\":11263:11268   */\n      dup3\n        /* \"#utility.yul\":11245:11269   */\n      tag_173\n      jump\t// in\n    tag_339:\n        /* \"#utility.yul\":11236:11269   */\n      swap2\n      pop\n        /* \"#utility.yul\":11291:11357   */\n      0xffffffffffffffffffffffffffffffffffffffffffffffffffffffffffffffff\n        /* \"#utility.yul\":11284:11289   */\n      dup3\n        /* \"#utility.yul\":11281:11358   */\n      sub\n        /* \"#utility.yul\":11278:11381   */\n      tag_340\n      jumpi\n        /* \"#utility.yul\":11361:11379   */\n      tag_341\n      tag_207\n      jump\t// in\n    tag_341:\n        /* \"#utility.yul\":11278:11381   */\n    tag_340:\n        /* \"#utility.yul\":11408:11409   */\n      0x01\n        /* \"#utility.yul\":11401:11406   */\n      dup3\n        /* \"#utility.yul\":11397:11410   */\n      add\n        /* \"#utility.yul\":11390:11410   */\n      swap1\n      pop\n        /* \"#utility.yul\":11183:11416   */\n      swap2\n      swap1\n      pop\n      jump\t// out\n        /* \"#utility.yul\":11422:11602   */\n    tag_117:\n        /* \"#utility.yul\":11470:11547   */\n      0x4e487b7100000000000000000000000000000000000000000000000000000000\n        /* \"#utility.yul\":11467:11468   */\n      0x00\n        /* \"#utility.yul\":11460:11548   */\n      mstore\n        /* \"#utility.yul\":11567:11571   */\n      0x31\n        /* \"#utility.yul\":11564:11565   */\n      0x04\n        /* \"#utility.yul\":11557:11572   */\n      mstore\n        /* \"#utility.yul\":11591:11595   */\n      0x24\n        /* \"#utility.yul\":11588:11589   */\n      0x00\n        /* \"#utility.yul\":11581:11596   */\n      revert\n        /* \"#utility.yul\":11608:11778   */\n    tag_210:\n        /* \"#utility.yul\":11748:11770   */\n      0x496e73756666696369656e742042616c616e6365000000000000000000000000\n        /* \"#utility.yul\":11744:11745   */\n      0x00\n        /* \"#utility.yul\":11736:11742   */\n      dup3\n        /* \"#utility.yul\":11732:11746   */\n      add\n        /* \"#utility.yul\":11725:11771   */\n      mstore\n        /* \"#utility.yul\":11608:11778   */\n      pop\n      jump\t// out\n        /* \"#utility.yul\":11784:12150   */\n    tag_211:\n        /* \"#utility.yul\":11926:11929   */\n      0x00\n        /* \"#utility.yul\":11947:12014   */\n      tag_345\n        /* \"#utility.yul\":12011:12013   */\n      0x14\n        /* \"#utility.yul\":12006:12009   */\n      dup4\n        /* \"#utility.yul\":11947:12014   */\n      tag_204\n      jump\t// in\n    tag_345:\n        /* \"#utility.yul\":11940:12014   */\n      swap2\n      pop\n        /* \"#utility.yul\":12023:12116   */\n      tag_346\n        /* \"#utility.yul\":12112:12115   */\n      dup3\n        /* \"#utility.yul\":12023:12116   */\n      tag_210\n      jump\t// in\n    tag_346:\n        /* \"#utility.yul\":12141:12143   */\n      0x20\n        /* \"#utility.yul\":12136:12139   */\n      dup3\n        /* \"#utility.yul\":12132:12144   */\n      add\n        /* \"#utility.yul\":12125:12144   */\n      swap1\n      pop\n        /* \"#utility.yul\":11784:12150   */\n      swap2\n      swap1\n      pop\n      jump\t// out\n        /* \"#utility.yul\":12156:12575   */\n    tag_133:\n        /* \"#utility.yul\":12322:12326   */\n      0x00\n        /* \"#utility.yul\":12360:12362   */\n      0x20\n        /* \"#utility.yul\":12349:12358   */\n      dup3\n        /* \"#utility.yul\":12345:12363   */\n      add\n        /* \"#utility.yul\":12337:12363   */\n      swap1\n      pop\n        /* \"#utility.yul\":12409:12418   */\n      dup2\n        /* \"#utility.yul\":12403:12407   */\n      dup2\n        /* \"#utility.yul\":12399:12419   */\n      sub\n        /* \"#utility.yul\":12395:12396   */\n      0x00\n        /* \"#utility.yul\":12384:12393   */\n      dup4\n        /* \"#utility.yul\":12380:12397   */\n      add\n        /* \"#utility.yul\":12373:12420   */\n      mstore\n        /* \"#utility.yul\":12437:12568   */\n      tag_348\n        /* \"#utility.yul\":12563:12567   */\n      dup2\n        /* \"#utility.yul\":12437:12568   */\n      tag_211\n      jump\t// in\n    tag_348:\n        /* \"#utility.yul\":12429:12568   */\n      swap1\n      pop\n        /* \"#utility.yul\":12156:12575   */\n      swap2\n      swap1\n      pop\n      jump\t// out\n        /* \"#utility.yul\":12581:12806   */\n    tag_212:\n        /* \"#utility.yul\":12721:12755   */\n      0x4f776e61626c653a206e6577206f776e657220697320746865207a65726f2061\n        /* \"#utility.yul\":12717:12718   */\n      0x00\n        /* \"#utility.yul\":12709:12715   */\n      dup3\n        /* \"#utility.yul\":12705:12719   */\n      add\n        /* \"#utility.yul\":12698:12756   */\n      mstore\n        /* \"#utility.yul\":12790:12798   */\n      0x6464726573730000000000000000000000000000000000000000000000000000\n        /* \"#utility.yul\":12785:12787   */\n      0x20\n        /* \"#utility.yul\":12777:12783   */\n      dup3\n        /* \"#utility.yul\":12773:12788   */\n      add\n        /* \"#utility.yul\":12766:12799   */\n      mstore\n        /* \"#utility.yul\":12581:12806   */\n      pop\n      jump\t// out\n        /* \"#utility.yul\":12812:13178   */\n    tag_213:\n        /* \"#utility.yul\":12954:12957   */\n      0x00\n        /* \"#utility.yul\":12975:13042   */\n      tag_351\n        /* \"#utility.yul\":13039:13041   */\n      0x26\n        /* \"#utility.yul\":13034:13037   */\n      dup4\n        /* \"#utility.yul\":12975:13042   */\n      tag_204\n      jump\t// in\n    tag_351:\n        /* \"#utility.yul\":12968:13042   */\n      swap2\n      pop\n        /* \"#utility.yul\":13051:13144   */\n      tag_352\n        /* \"#utility.yul\":13140:13143   */\n      dup3\n        /* \"#utility.yul\":13051:13144   */\n      tag_212\n      jump\t// in\n    tag_352:\n        /* \"#utility.yul\":13169:13171   */\n      0x40\n        /* \"#utility.yul\":13164:13167   */\n      dup3\n        /* \"#utility.yul\":13160:13172   */\n      add\n        /* \"#utility.yul\":13153:13172   */\n      swap1\n      pop\n        /* \"#utility.yul\":12812:13178   */\n      swap2\n      swap1\n      pop\n      jump\t// out\n        /* \"#utility.yul\":13184:13603   */\n    tag_147:\n        /* \"#utility.yul\":13350:13354   */\n      0x00\n        /* \"#utility.yul\":13388:13390   */\n      0x20\n        /* \"#utility.yul\":13377:13386   */\n      dup3\n        /* \"#utility.yul\":13373:13391   */\n      add\n        /* \"#utility.yul\":13365:13391   */\n      swap1\n      pop\n        /* \"#utility.yul\":13437:13446   */\n      dup2\n        /* \"#utility.yul\":13431:13435   */\n      dup2\n        /* \"#utility.yul\":13427:13447   */\n      sub\n        /* \"#utility.yul\":13423:13424   */\n      0x00\n        /* \"#utility.yul\":13412:13421   */\n      dup4\n        /* \"#utility.yul\":13408:13425   */\n      add\n        /* \"#utility.yul\":13401:13448   */\n      mstore\n        /* \"#utility.yul\":13465:13596   */\n      tag_354\n        /* \"#utility.yul\":13591:13595   */\n      dup2\n        /* \"#utility.yul\":13465:13596   */\n      tag_213\n      jump\t// in\n    tag_354:\n        /* \"#utility.yul\":13457:13596   */\n      swap1\n      pop\n        /* \"#utility.yul\":13184:13603   */\n      swap2\n      swap1\n      pop\n      jump\t// out\n        /* \"#utility.yul\":13609:13791   */\n    tag_214:\n        /* \"#utility.yul\":13749:13783   */\n      0x4f776e61626c653a2063616c6c6572206973206e6f7420746865206f776e6572\n        /* \"#utility.yul\":13745:13746   */\n      0x00\n        /* \"#utility.yul\":13737:13743   */\n      dup3\n        /* \"#utility.yul\":13733:13747   */\n      add\n        /* \"#utility.yul\":13726:13784   */\n      mstore\n        /* \"#utility.yul\":13609:13791   */\n      pop\n      jump\t// out\n        /* \"#utility.yul\":13797:14163   */\n    tag_215:\n        /* \"#utility.yul\":13939:13942   */\n      0x00\n        /* \"#utility.yul\":13960:14027   */\n      tag_357\n        /* \"#utility.yul\":14024:14026   */\n      0x20\n        /* \"#utility.yul\":14019:14022   */\n      dup4\n        /* \"#utility.yul\":13960:14027   */\n      tag_204\n      jump\t// in\n    tag_357:\n        /* \"#utility.yul\":13953:14027   */\n      swap2\n      pop\n        /* \"#utility.yul\":14036:14129   */\n      tag_358\n        /* \"#utility.yul\":14125:14128   */\n      dup3\n        /* \"#utility.yul\":14036:14129   */\n      tag_214\n      jump\t// in\n    tag_358:\n        /* \"#utility.yul\":14154:14156   */\n      0x20\n        /* \"#utility.yul\":14149:14152   */\n      dup3\n        /* \"#utility.yul\":14145:14157   */\n      add\n        /* \"#utility.yul\":14138:14157   */\n      swap1\n      pop\n        /* \"#utility.yul\":13797:14163   */\n      swap2\n      swap1\n      pop\n      jump\t// out\n        /* \"#utility.yul\":14169:14588   */\n    tag_170:\n        /* \"#utility.yul\":14335:14339   */\n      0x00\n        /* \"#utility.yul\":14373:14375   */\n      0x20\n        /* \"#utility.yul\":14362:14371   */\n      dup3\n        /* \"#utility.yul\":14358:14376   */\n      add\n        /* \"#utility.yul\":14350:14376   */\n      swap1\n      pop\n        /* \"#utility.yul\":14422:14431   */\n      dup2\n        /* \"#utility.yul\":14416:14420   */\n      dup2\n        /* \"#utility.yul\":14412:14432   */\n      sub\n        /* \"#utility.yul\":14408:14409   */\n      0x00\n        /* \"#utility.yul\":14397:14406   */\n      dup4\n        /* \"#utility.yul\":14393:14410   */\n      add\n        /* \"#utility.yul\":14386:14433   */\n      mstore\n        /* \"#utility.yul\":14450:14581   */\n      tag_360\n        /* \"#utility.yul\":14576:14580   */\n      dup2\n        /* \"#utility.yul\":14450:14581   */\n      tag_215\n      jump\t// in\n    tag_360:\n        /* \"#utility.yul\":14442:14581   */\n      swap1\n      pop\n        /* \"#utility.yul\":14169:14588   */\n      swap2\n      swap1\n      pop\n      jump\t// out\n\n    auxdata: 0xa2646970667358221220b02dcb1f7b3570f8557dc0b8c34012d54403aa75be14bb55b5d17ad0604dc34164736f6c63430008120033\n}\n",
				"bytecode": {
					"linkReferences": {},
					"object": "608060405234801561001057600080fd5b5061002d61002261003260201b60201c565b61003a60201b60201c565b6100fe565b600033905090565b60008060009054906101000a900473ffffffffffffffffffffffffffffffffffffffff169050816000806101000a81548173ffffffffffffffffffffffffffffffffffffffff021916908373ffffffffffffffffffffffffffffffffffffffff1602179055508173ffffffffffffffffffffffffffffffffffffffff168173ffffffffffffffffffffffffffffffffffffffff167f8be0079c531659141344cd1fd0a4f28419497f9722a3daafe3b4186f6b6457e060405160405180910390a35050565b6111f28061010d6000396000f3fe6080604052600436106100dd5760003560e01c80638c93256e1161007f578063f2fde38b11610059578063f2fde38b14610246578063f4c4c79f1461026f578063fd32dd9e14610286578063feb99386146102c3576100dd565b80638c93256e146101d45780638da5cb5b146101f0578063aa88c53b1461021b576100dd565b80633b882fbd116100bb5780633b882fbd146101405780633baacc781461016b5780633bafcf0214610194578063715018a6146101bd576100dd565b80630f138bfe146100e257806313c9e48a1461010d5780632bf2407214610136575b600080fd5b3480156100ee57600080fd5b506100f76102ec565b6040516101049190610a02565b60405180910390f35b34801561011957600080fd5b50610134600480360381019061012f9190610a5d565b6102fe565b005b61013e610353565b005b34801561014c57600080fd5b50610155610376565b6040516101629190610a02565b60405180910390f35b34801561017757600080fd5b50610192600480360381019061018d9190610a5d565b610383565b005b3480156101a057600080fd5b506101bb60048036038101906101b69190610ae8565b6104f4565b005b3480156101c957600080fd5b506101d2610562565b005b6101ee60048036038101906101e99190610b53565b610576565b005b3480156101fc57600080fd5b50610205610674565b6040516102129190610b8f565b60405180910390f35b34801561022757600080fd5b5061023061069d565b60405161023d9190610c68565b60405180910390f35b34801561025257600080fd5b5061026d60048036038101906102689190610ae8565b61072b565b005b34801561027b57600080fd5b506102846107ae565b005b34801561029257600080fd5b506102ad60048036038101906102a89190610a5d565b6107b8565b6040516102ba9190610b8f565b60405180910390f35b3480156102cf57600080fd5b506102ea60048036038101906102e59190610de3565b6107f7565b005b60006102f661089f565b600354905090565b61030661089f565b60008103610349576040517f08c379a000000000000000000000000000000000000000000000000000000000815260040161034090610e89565b60405180910390fd5b8060028190555050565b61035b61089f565b346003600082825461036d9190610ed8565b92505081905550565b6000600180549050905090565b61038b61089f565b60018054905081106103d2576040517f08c379a00000000000000000000000000000000000000000000000000000000081526004016103c990610f58565b60405180910390fd5b60008190505b600180805490506103e99190610f78565b8110156104a957600180826103fe9190610ed8565b8154811061040f5761040e610fac565b5b9060005260206000200160009054906101000a900473ffffffffffffffffffffffffffffffffffffffff166001828154811061044e5761044d610fac565b5b9060005260206000200160006101000a81548173ffffffffffffffffffffffffffffffffffffffff021916908373ffffffffffffffffffffffffffffffffffffffff16021790555080806104a190610fdb565b9150506103d8565b5060018054806104bc576104bb611023565b5b6001900381819060005260206000200160006101000a81549073ffffffffffffffffffffffffffffffffffffffff0219169055905550565b6104fc61089f565b6001819080600181540180825580915050600190039060005260206000200160009091909190916101000a81548173ffffffffffffffffffffffffffffffffffffffff021916908373ffffffffffffffffffffffffffffffffffffffff16021790555050565b61056a61089f565b610574600061091d565b565b61057e61089f565b3460035410156105c3576040517f08c379a00000000000000000000000000000000000000000000000000000000081526004016105ba9061109e565b60405180910390fd5b8073ffffffffffffffffffffffffffffffffffffffff166108fc349081150290604051600060405180830381858888f19350505050158015610609573d6000803e3d6000fd5b50346003600082825461061c9190610f78565b925050819055508073ffffffffffffffffffffffffffffffffffffffff167f65ba0d013dd6bc1414e500ad30e4d210e42f0159a37abcbc8f78e8e10a6a8765346040516106699190610a02565b60405180910390a250565b60008060009054906101000a900473ffffffffffffffffffffffffffffffffffffffff16905090565b6060600180548060200260200160405190810160405280929190818152602001828054801561072157602002820191906000526020600020905b8160009054906101000a900473ffffffffffffffffffffffffffffffffffffffff1673ffffffffffffffffffffffffffffffffffffffff16815260200190600101908083116106d7575b5050505050905090565b61073361089f565b600073ffffffffffffffffffffffffffffffffffffffff168173ffffffffffffffffffffffffffffffffffffffff16036107a2576040517f08c379a000000000000000000000000000000000000000000000000000000000815260040161079990611130565b60405180910390fd5b6107ab8161091d565b50565b6107b661089f565b565b600181815481106107c857600080fd5b906000526020600020016000915054906101000a900473ffffffffffffffffffffffffffffffffffffffff1681565b6107ff61089f565b60005b815181101561089b5760018282815181106108205761081f610fac565b5b60200260200101519080600181540180825580915050600190039060005260206000200160009091909190916101000a81548173ffffffffffffffffffffffffffffffffffffffff021916908373ffffffffffffffffffffffffffffffffffffffff160217905550808061089390610fdb565b915050610802565b5050565b6108a76109e1565b73ffffffffffffffffffffffffffffffffffffffff166108c5610674565b73ffffffffffffffffffffffffffffffffffffffff161461091b576040517f08c379a00000000000000000000000000000000000000000000000000000000081526004016109129061119c565b60405180910390fd5b565b60008060009054906101000a900473ffffffffffffffffffffffffffffffffffffffff169050816000806101000a81548173ffffffffffffffffffffffffffffffffffffffff021916908373ffffffffffffffffffffffffffffffffffffffff1602179055508173ffffffffffffffffffffffffffffffffffffffff168173ffffffffffffffffffffffffffffffffffffffff167f8be0079c531659141344cd1fd0a4f28419497f9722a3daafe3b4186f6b6457e060405160405180910390a35050565b600033905090565b6000819050919050565b6109fc816109e9565b82525050565b6000602082019050610a1760008301846109f3565b92915050565b6000604051905090565b600080fd5b600080fd5b610a3a816109e9565b8114610a4557600080fd5b50565b600081359050610a5781610a31565b92915050565b600060208284031215610a7357610a72610a27565b5b6000610a8184828501610a48565b91505092915050565b600073ffffffffffffffffffffffffffffffffffffffff82169050919050565b6000610ab582610a8a565b9050919050565b610ac581610aaa565b8114610ad057600080fd5b50565b600081359050610ae281610abc565b92915050565b600060208284031215610afe57610afd610a27565b5b6000610b0c84828501610ad3565b91505092915050565b6000610b2082610a8a565b9050919050565b610b3081610b15565b8114610b3b57600080fd5b50565b600081359050610b4d81610b27565b92915050565b600060208284031215610b6957610b68610a27565b5b6000610b7784828501610b3e565b91505092915050565b610b8981610aaa565b82525050565b6000602082019050610ba46000830184610b80565b92915050565b600081519050919050565b600082825260208201905092915050565b6000819050602082019050919050565b610bdf81610aaa565b82525050565b6000610bf18383610bd6565b60208301905092915050565b6000602082019050919050565b6000610c1582610baa565b610c1f8185610bb5565b9350610c2a83610bc6565b8060005b83811015610c5b578151610c428882610be5565b9750610c4d83610bfd565b925050600181019050610c2e565b5085935050505092915050565b60006020820190508181036000830152610c828184610c0a565b905092915050565b600080fd5b6000601f19601f8301169050919050565b7f4e487b7100000000000000000000000000000000000000000000000000000000600052604160045260246000fd5b610cd882610c8f565b810181811067ffffffffffffffff82111715610cf757610cf6610ca0565b5b80604052505050565b6000610d0a610a1d565b9050610d168282610ccf565b919050565b600067ffffffffffffffff821115610d3657610d35610ca0565b5b602082029050602081019050919050565b600080fd5b6000610d5f610d5a84610d1b565b610d00565b90508083825260208201905060208402830185811115610d8257610d81610d47565b5b835b81811015610dab5780610d978882610ad3565b845260208401935050602081019050610d84565b5050509392505050565b600082601f830112610dca57610dc9610c8a565b5b8135610dda848260208601610d4c565b91505092915050565b600060208284031215610df957610df8610a27565b5b600082013567ffffffffffffffff811115610e1757610e16610a2c565b5b610e2384828501610db5565b91505092915050565b600082825260208201905092915050565b7f496e76616c696420416d6f756e74000000000000000000000000000000000000600082015250565b6000610e73600e83610e2c565b9150610e7e82610e3d565b602082019050919050565b60006020820190508181036000830152610ea281610e66565b9050919050565b7f4e487b7100000000000000000000000000000000000000000000000000000000600052601160045260246000fd5b6000610ee3826109e9565b9150610eee836109e9565b9250828201905080821115610f0657610f05610ea9565b5b92915050565b7f496e646578206f7574206f6620626f756e647300000000000000000000000000600082015250565b6000610f42601383610e2c565b9150610f4d82610f0c565b602082019050919050565b60006020820190508181036000830152610f7181610f35565b9050919050565b6000610f83826109e9565b9150610f8e836109e9565b9250828203905081811115610fa657610fa5610ea9565b5b92915050565b7f4e487b7100000000000000000000000000000000000000000000000000000000600052603260045260246000fd5b6000610fe6826109e9565b91507fffffffffffffffffffffffffffffffffffffffffffffffffffffffffffffffff820361101857611017610ea9565b5b600182019050919050565b7f4e487b7100000000000000000000000000000000000000000000000000000000600052603160045260246000fd5b7f496e73756666696369656e742042616c616e6365000000000000000000000000600082015250565b6000611088601483610e2c565b915061109382611052565b602082019050919050565b600060208201905081810360008301526110b78161107b565b9050919050565b7f4f776e61626c653a206e6577206f776e657220697320746865207a65726f206160008201527f6464726573730000000000000000000000000000000000000000000000000000602082015250565b600061111a602683610e2c565b9150611125826110be565b604082019050919050565b600060208201905081810360008301526111498161110d565b9050919050565b7f4f776e61626c653a2063616c6c6572206973206e6f7420746865206f776e6572600082015250565b6000611186602083610e2c565b915061119182611150565b602082019050919050565b600060208201905081810360008301526111b581611179565b905091905056fea2646970667358221220b02dcb1f7b3570f8557dc0b8c34012d54403aa75be14bb55b5d17ad0604dc34164736f6c63430008120033",
					"opcodes": "PUSH1 0x80 PUSH1 0x40 MSTORE CALLVALUE DUP1 ISZERO PUSH2 0x10 JUMPI PUSH1 0x0 DUP1 REVERT JUMPDEST POP PUSH2 0x2D PUSH2 0x22 PUSH2 0x32 PUSH1 0x20 SHL PUSH1 0x20 SHR JUMP JUMPDEST PUSH2 0x3A PUSH1 0x20 SHL PUSH1 0x20 SHR JUMP JUMPDEST PUSH2 0xFE JUMP JUMPDEST PUSH1 0x0 CALLER SWAP1 POP SWAP1 JUMP JUMPDEST PUSH1 0x0 DUP1 PUSH1 0x0 SWAP1 SLOAD SWAP1 PUSH2 0x100 EXP SWAP1 DIV PUSH20 0xFFFFFFFFFFFFFFFFFFFFFFFFFFFFFFFFFFFFFFFF AND SWAP1 POP DUP2 PUSH1 0x0 DUP1 PUSH2 0x100 EXP DUP2 SLOAD DUP2 PUSH20 0xFFFFFFFFFFFFFFFFFFFFFFFFFFFFFFFFFFFFFFFF MUL NOT AND SWAP1 DUP4 PUSH20 0xFFFFFFFFFFFFFFFFFFFFFFFFFFFFFFFFFFFFFFFF AND MUL OR SWAP1 SSTORE POP DUP2 PUSH20 0xFFFFFFFFFFFFFFFFFFFFFFFFFFFFFFFFFFFFFFFF AND DUP2 PUSH20 0xFFFFFFFFFFFFFFFFFFFFFFFFFFFFFFFFFFFFFFFF AND PUSH32 0x8BE0079C531659141344CD1FD0A4F28419497F9722A3DAAFE3B4186F6B6457E0 PUSH1 0x40 MLOAD PUSH1 0x40 MLOAD DUP1 SWAP2 SUB SWAP1 LOG3 POP POP JUMP JUMPDEST PUSH2 0x11F2 DUP1 PUSH2 0x10D PUSH1 0x0 CODECOPY PUSH1 0x0 RETURN INVALID PUSH1 0x80 PUSH1 0x40 MSTORE PUSH1 0x4 CALLDATASIZE LT PUSH2 0xDD JUMPI PUSH1 0x0 CALLDATALOAD PUSH1 0xE0 SHR DUP1 PUSH4 0x8C93256E GT PUSH2 0x7F JUMPI DUP1 PUSH4 0xF2FDE38B GT PUSH2 0x59 JUMPI DUP1 PUSH4 0xF2FDE38B EQ PUSH2 0x246 JUMPI DUP1 PUSH4 0xF4C4C79F EQ PUSH2 0x26F JUMPI DUP1 PUSH4 0xFD32DD9E EQ PUSH2 0x286 JUMPI DUP1 PUSH4 0xFEB99386 EQ PUSH2 0x2C3 JUMPI PUSH2 0xDD JUMP JUMPDEST DUP1 PUSH4 0x8C93256E EQ PUSH2 0x1D4 JUMPI DUP1 PUSH4 0x8DA5CB5B EQ PUSH2 0x1F0 JUMPI DUP1 PUSH4 0xAA88C53B EQ PUSH2 0x21B JUMPI PUSH2 0xDD JUMP JUMPDEST DUP1 PUSH4 0x3B882FBD GT PUSH2 0xBB JUMPI DUP1 PUSH4 0x3B882FBD EQ PUSH2 0x140 JUMPI DUP1 PUSH4 0x3BAACC78 EQ PUSH2 0x16B JUMPI DUP1 PUSH4 0x3BAFCF02 EQ PUSH2 0x194 JUMPI DUP1 PUSH4 0x715018A6 EQ PUSH2 0x1BD JUMPI PUSH2 0xDD JUMP JUMPDEST DUP1 PUSH4 0xF138BFE EQ PUSH2 0xE2 JUMPI DUP1 PUSH4 0x13C9E48A EQ PUSH2 0x10D JUMPI DUP1 PUSH4 0x2BF24072 EQ PUSH2 0x136 JUMPI JUMPDEST PUSH1 0x0 DUP1 REVERT JUMPDEST CALLVALUE DUP1 ISZERO PUSH2 0xEE JUMPI PUSH1 0x0 DUP1 REVERT JUMPDEST POP PUSH2 0xF7 PUSH2 0x2EC JUMP JUMPDEST PUSH1 0x40 MLOAD PUSH2 0x104 SWAP2 SWAP1 PUSH2 0xA02 JUMP JUMPDEST PUSH1 0x40 MLOAD DUP1 SWAP2 SUB SWAP1 RETURN JUMPDEST CALLVALUE DUP1 ISZERO PUSH2 0x119 JUMPI PUSH1 0x0 DUP1 REVERT JUMPDEST POP PUSH2 0x134 PUSH1 0x4 DUP1 CALLDATASIZE SUB DUP2 ADD SWAP1 PUSH2 0x12F SWAP2 SWAP1 PUSH2 0xA5D JUMP JUMPDEST PUSH2 0x2FE JUMP JUMPDEST STOP JUMPDEST PUSH2 0x13E PUSH2 0x353 JUMP JUMPDEST STOP JUMPDEST CALLVALUE DUP1 ISZERO PUSH2 0x14C JUMPI PUSH1 0x0 DUP1 REVERT JUMPDEST POP PUSH2 0x155 PUSH2 0x376 JUMP JUMPDEST PUSH1 0x40 MLOAD PUSH2 0x162 SWAP2 SWAP1 PUSH2 0xA02 JUMP JUMPDEST PUSH1 0x40 MLOAD DUP1 SWAP2 SUB SWAP1 RETURN JUMPDEST CALLVALUE DUP1 ISZERO PUSH2 0x177 JUMPI PUSH1 0x0 DUP1 REVERT JUMPDEST POP PUSH2 0x192 PUSH1 0x4 DUP1 CALLDATASIZE SUB DUP2 ADD SWAP1 PUSH2 0x18D SWAP2 SWAP1 PUSH2 0xA5D JUMP JUMPDEST PUSH2 0x383 JUMP JUMPDEST STOP JUMPDEST CALLVALUE DUP1 ISZERO PUSH2 0x1A0 JUMPI PUSH1 0x0 DUP1 REVERT JUMPDEST POP PUSH2 0x1BB PUSH1 0x4 DUP1 CALLDATASIZE SUB DUP2 ADD SWAP1 PUSH2 0x1B6 SWAP2 SWAP1 PUSH2 0xAE8 JUMP JUMPDEST PUSH2 0x4F4 JUMP JUMPDEST STOP JUMPDEST CALLVALUE DUP1 ISZERO PUSH2 0x1C9 JUMPI PUSH1 0x0 DUP1 REVERT JUMPDEST POP PUSH2 0x1D2 PUSH2 0x562 JUMP JUMPDEST STOP JUMPDEST PUSH2 0x1EE PUSH1 0x4 DUP1 CALLDATASIZE SUB DUP2 ADD SWAP1 PUSH2 0x1E9 SWAP2 SWAP1 PUSH2 0xB53 JUMP JUMPDEST PUSH2 0x576 JUMP JUMPDEST STOP JUMPDEST CALLVALUE DUP1 ISZERO PUSH2 0x1FC JUMPI PUSH1 0x0 DUP1 REVERT JUMPDEST POP PUSH2 0x205 PUSH2 0x674 JUMP JUMPDEST PUSH1 0x40 MLOAD PUSH2 0x212 SWAP2 SWAP1 PUSH2 0xB8F JUMP JUMPDEST PUSH1 0x40 MLOAD DUP1 SWAP2 SUB SWAP1 RETURN JUMPDEST CALLVALUE DUP1 ISZERO PUSH2 0x227 JUMPI PUSH1 0x0 DUP1 REVERT JUMPDEST POP PUSH2 0x230 PUSH2 0x69D JUMP JUMPDEST PUSH1 0x40 MLOAD PUSH2 0x23D SWAP2 SWAP1 PUSH2 0xC68 JUMP JUMPDEST PUSH1 0x40 MLOAD DUP1 SWAP2 SUB SWAP1 RETURN JUMPDEST CALLVALUE DUP1 ISZERO PUSH2 0x252 JUMPI PUSH1 0x0 DUP1 REVERT JUMPDEST POP PUSH2 0x26D PUSH1 0x4 DUP1 CALLDATASIZE SUB DUP2 ADD SWAP1 PUSH2 0x268 SWAP2 SWAP1 PUSH2 0xAE8 JUMP JUMPDEST PUSH2 0x72B JUMP JUMPDEST STOP JUMPDEST CALLVALUE DUP1 ISZERO PUSH2 0x27B JUMPI PUSH1 0x0 DUP1 REVERT JUMPDEST POP PUSH2 0x284 PUSH2 0x7AE JUMP JUMPDEST STOP JUMPDEST CALLVALUE DUP1 ISZERO PUSH2 0x292 JUMPI PUSH1 0x0 DUP1 REVERT JUMPDEST POP PUSH2 0x2AD PUSH1 0x4 DUP1 CALLDATASIZE SUB DUP2 ADD SWAP1 PUSH2 0x2A8 SWAP2 SWAP1 PUSH2 0xA5D JUMP JUMPDEST PUSH2 0x7B8 JUMP JUMPDEST PUSH1 0x40 MLOAD PUSH2 0x2BA SWAP2 SWAP1 PUSH2 0xB8F JUMP JUMPDEST PUSH1 0x40 MLOAD DUP1 SWAP2 SUB SWAP1 RETURN JUMPDEST CALLVALUE DUP1 ISZERO PUSH2 0x2CF JUMPI PUSH1 0x0 DUP1 REVERT JUMPDEST POP PUSH2 0x2EA PUSH1 0x4 DUP1 CALLDATASIZE SUB DUP2 ADD SWAP1 PUSH2 0x2E5 SWAP2 SWAP1 PUSH2 0xDE3 JUMP JUMPDEST PUSH2 0x7F7 JUMP JUMPDEST STOP JUMPDEST PUSH1 0x0 PUSH2 0x2F6 PUSH2 0x89F JUMP JUMPDEST PUSH1 0x3 SLOAD SWAP1 POP SWAP1 JUMP JUMPDEST PUSH2 0x306 PUSH2 0x89F JUMP JUMPDEST PUSH1 0x0 DUP2 SUB PUSH2 0x349 JUMPI PUSH1 0x40 MLOAD PUSH32 0x8C379A000000000000000000000000000000000000000000000000000000000 DUP2 MSTORE PUSH1 0x4 ADD PUSH2 0x340 SWAP1 PUSH2 0xE89 JUMP JUMPDEST PUSH1 0x40 MLOAD DUP1 SWAP2 SUB SWAP1 REVERT JUMPDEST DUP1 PUSH1 0x2 DUP2 SWAP1 SSTORE POP POP JUMP JUMPDEST PUSH2 0x35B PUSH2 0x89F JUMP JUMPDEST CALLVALUE PUSH1 0x3 PUSH1 0x0 DUP3 DUP3 SLOAD PUSH2 0x36D SWAP2 SWAP1 PUSH2 0xED8 JUMP JUMPDEST SWAP3 POP POP DUP2 SWAP1 SSTORE POP JUMP JUMPDEST PUSH1 0x0 PUSH1 0x1 DUP1 SLOAD SWAP1 POP SWAP1 POP SWAP1 JUMP JUMPDEST PUSH2 0x38B PUSH2 0x89F JUMP JUMPDEST PUSH1 0x1 DUP1 SLOAD SWAP1 POP DUP2 LT PUSH2 0x3D2 JUMPI PUSH1 0x40 MLOAD PUSH32 0x8C379A000000000000000000000000000000000000000000000000000000000 DUP2 MSTORE PUSH1 0x4 ADD PUSH2 0x3C9 SWAP1 PUSH2 0xF58 JUMP JUMPDEST PUSH1 0x40 MLOAD DUP1 SWAP2 SUB SWAP1 REVERT JUMPDEST PUSH1 0x0 DUP2 SWAP1 POP JUMPDEST PUSH1 0x1 DUP1 DUP1 SLOAD SWAP1 POP PUSH2 0x3E9 SWAP2 SWAP1 PUSH2 0xF78 JUMP JUMPDEST DUP2 LT ISZERO PUSH2 0x4A9 JUMPI PUSH1 0x1 DUP1 DUP3 PUSH2 0x3FE SWAP2 SWAP1 PUSH2 0xED8 JUMP JUMPDEST DUP2 SLOAD DUP2 LT PUSH2 0x40F JUMPI PUSH2 0x40E PUSH2 0xFAC JUMP JUMPDEST JUMPDEST SWAP1 PUSH1 0x0 MSTORE PUSH1 0x20 PUSH1 0x0 KECCAK256 ADD PUSH1 0x0 SWAP1 SLOAD SWAP1 PUSH2 0x100 EXP SWAP1 DIV PUSH20 0xFFFFFFFFFFFFFFFFFFFFFFFFFFFFFFFFFFFFFFFF AND PUSH1 0x1 DUP3 DUP2 SLOAD DUP2 LT PUSH2 0x44E JUMPI PUSH2 0x44D PUSH2 0xFAC JUMP JUMPDEST JUMPDEST SWAP1 PUSH1 0x0 MSTORE PUSH1 0x20 PUSH1 0x0 KECCAK256 ADD PUSH1 0x0 PUSH2 0x100 EXP DUP2 SLOAD DUP2 PUSH20 0xFFFFFFFFFFFFFFFFFFFFFFFFFFFFFFFFFFFFFFFF MUL NOT AND SWAP1 DUP4 PUSH20 0xFFFFFFFFFFFFFFFFFFFFFFFFFFFFFFFFFFFFFFFF AND MUL OR SWAP1 SSTORE POP DUP1 DUP1 PUSH2 0x4A1 SWAP1 PUSH2 0xFDB JUMP JUMPDEST SWAP2 POP POP PUSH2 0x3D8 JUMP JUMPDEST POP PUSH1 0x1 DUP1 SLOAD DUP1 PUSH2 0x4BC JUMPI PUSH2 0x4BB PUSH2 0x1023 JUMP JUMPDEST JUMPDEST PUSH1 0x1 SWAP1 SUB DUP2 DUP2 SWAP1 PUSH1 0x0 MSTORE PUSH1 0x20 PUSH1 0x0 KECCAK256 ADD PUSH1 0x0 PUSH2 0x100 EXP DUP2 SLOAD SWAP1 PUSH20 0xFFFFFFFFFFFFFFFFFFFFFFFFFFFFFFFFFFFFFFFF MUL NOT AND SWAP1 SSTORE SWAP1 SSTORE POP JUMP JUMPDEST PUSH2 0x4FC PUSH2 0x89F JUMP JUMPDEST PUSH1 0x1 DUP2 SWAP1 DUP1 PUSH1 0x1 DUP2 SLOAD ADD DUP1 DUP3 SSTORE DUP1 SWAP2 POP POP PUSH1 0x1 SWAP1 SUB SWAP1 PUSH1 0x0 MSTORE PUSH1 0x20 PUSH1 0x0 KECCAK256 ADD PUSH1 0x0 SWAP1 SWAP2 SWAP1 SWAP2 SWAP1 SWAP2 PUSH2 0x100 EXP DUP2 SLOAD DUP2 PUSH20 0xFFFFFFFFFFFFFFFFFFFFFFFFFFFFFFFFFFFFFFFF MUL NOT AND SWAP1 DUP4 PUSH20 0xFFFFFFFFFFFFFFFFFFFFFFFFFFFFFFFFFFFFFFFF AND MUL OR SWAP1 SSTORE POP POP JUMP JUMPDEST PUSH2 0x56A PUSH2 0x89F JUMP JUMPDEST PUSH2 0x574 PUSH1 0x0 PUSH2 0x91D JUMP JUMPDEST JUMP JUMPDEST PUSH2 0x57E PUSH2 0x89F JUMP JUMPDEST CALLVALUE PUSH1 0x3 SLOAD LT ISZERO PUSH2 0x5C3 JUMPI PUSH1 0x40 MLOAD PUSH32 0x8C379A000000000000000000000000000000000000000000000000000000000 DUP2 MSTORE PUSH1 0x4 ADD PUSH2 0x5BA SWAP1 PUSH2 0x109E JUMP JUMPDEST PUSH1 0x40 MLOAD DUP1 SWAP2 SUB SWAP1 REVERT JUMPDEST DUP1 PUSH20 0xFFFFFFFFFFFFFFFFFFFFFFFFFFFFFFFFFFFFFFFF AND PUSH2 0x8FC CALLVALUE SWAP1 DUP2 ISZERO MUL SWAP1 PUSH1 0x40 MLOAD PUSH1 0x0 PUSH1 0x40 MLOAD DUP1 DUP4 SUB DUP2 DUP6 DUP9 DUP9 CALL SWAP4 POP POP POP POP ISZERO DUP1 ISZERO PUSH2 0x609 JUMPI RETURNDATASIZE PUSH1 0x0 DUP1 RETURNDATACOPY RETURNDATASIZE PUSH1 0x0 REVERT JUMPDEST POP CALLVALUE PUSH1 0x3 PUSH1 0x0 DUP3 DUP3 SLOAD PUSH2 0x61C SWAP2 SWAP1 PUSH2 0xF78 JUMP JUMPDEST SWAP3 POP POP DUP2 SWAP1 SSTORE POP DUP1 PUSH20 0xFFFFFFFFFFFFFFFFFFFFFFFFFFFFFFFFFFFFFFFF AND PUSH32 0x65BA0D013DD6BC1414E500AD30E4D210E42F0159A37ABCBC8F78E8E10A6A8765 CALLVALUE PUSH1 0x40 MLOAD PUSH2 0x669 SWAP2 SWAP1 PUSH2 0xA02 JUMP JUMPDEST PUSH1 0x40 MLOAD DUP1 SWAP2 SUB SWAP1 LOG2 POP JUMP JUMPDEST PUSH1 0x0 DUP1 PUSH1 0x0 SWAP1 SLOAD SWAP1 PUSH2 0x100 EXP SWAP1 DIV PUSH20 0xFFFFFFFFFFFFFFFFFFFFFFFFFFFFFFFFFFFFFFFF AND SWAP1 POP SWAP1 JUMP JUMPDEST PUSH1 0x60 PUSH1 0x1 DUP1 SLOAD DUP1 PUSH1 0x20 MUL PUSH1 0x20 ADD PUSH1 0x40 MLOAD SWAP1 DUP2 ADD PUSH1 0x40 MSTORE DUP1 SWAP3 SWAP2 SWAP1 DUP2 DUP2 MSTORE PUSH1 0x20 ADD DUP3 DUP1 SLOAD DUP1 ISZERO PUSH2 0x721 JUMPI PUSH1 0x20 MUL DUP3 ADD SWAP2 SWAP1 PUSH1 0x0 MSTORE PUSH1 0x20 PUSH1 0x0 KECCAK256 SWAP1 JUMPDEST DUP2 PUSH1 0x0 SWAP1 SLOAD SWAP1 PUSH2 0x100 EXP SWAP1 DIV PUSH20 0xFFFFFFFFFFFFFFFFFFFFFFFFFFFFFFFFFFFFFFFF AND PUSH20 0xFFFFFFFFFFFFFFFFFFFFFFFFFFFFFFFFFFFFFFFF AND DUP2 MSTORE PUSH1 0x20 ADD SWAP1 PUSH1 0x1 ADD SWAP1 DUP1 DUP4 GT PUSH2 0x6D7 JUMPI JUMPDEST POP POP POP POP POP SWAP1 POP SWAP1 JUMP JUMPDEST PUSH2 0x733 PUSH2 0x89F JUMP JUMPDEST PUSH1 0x0 PUSH20 0xFFFFFFFFFFFFFFFFFFFFFFFFFFFFFFFFFFFFFFFF AND DUP2 PUSH20 0xFFFFFFFFFFFFFFFFFFFFFFFFFFFFFFFFFFFFFFFF AND SUB PUSH2 0x7A2 JUMPI PUSH1 0x40 MLOAD PUSH32 0x8C379A000000000000000000000000000000000000000000000000000000000 DUP2 MSTORE PUSH1 0x4 ADD PUSH2 0x799 SWAP1 PUSH2 0x1130 JUMP JUMPDEST PUSH1 0x40 MLOAD DUP1 SWAP2 SUB SWAP1 REVERT JUMPDEST PUSH2 0x7AB DUP2 PUSH2 0x91D JUMP JUMPDEST POP JUMP JUMPDEST PUSH2 0x7B6 PUSH2 0x89F JUMP JUMPDEST JUMP JUMPDEST PUSH1 0x1 DUP2 DUP2 SLOAD DUP2 LT PUSH2 0x7C8 JUMPI PUSH1 0x0 DUP1 REVERT JUMPDEST SWAP1 PUSH1 0x0 MSTORE PUSH1 0x20 PUSH1 0x0 KECCAK256 ADD PUSH1 0x0 SWAP2 POP SLOAD SWAP1 PUSH2 0x100 EXP SWAP1 DIV PUSH20 0xFFFFFFFFFFFFFFFFFFFFFFFFFFFFFFFFFFFFFFFF AND DUP2 JUMP JUMPDEST PUSH2 0x7FF PUSH2 0x89F JUMP JUMPDEST PUSH1 0x0 JUMPDEST DUP2 MLOAD DUP2 LT ISZERO PUSH2 0x89B JUMPI PUSH1 0x1 DUP3 DUP3 DUP2 MLOAD DUP2 LT PUSH2 0x820 JUMPI PUSH2 0x81F PUSH2 0xFAC JUMP JUMPDEST JUMPDEST PUSH1 0x20 MUL PUSH1 0x20 ADD ADD MLOAD SWAP1 DUP1 PUSH1 0x1 DUP2 SLOAD ADD DUP1 DUP3 SSTORE DUP1 SWAP2 POP POP PUSH1 0x1 SWAP1 SUB SWAP1 PUSH1 0x0 MSTORE PUSH1 0x20 PUSH1 0x0 KECCAK256 ADD PUSH1 0x0 SWAP1 SWAP2 SWAP1 SWAP2 SWAP1 SWAP2 PUSH2 0x100 EXP DUP2 SLOAD DUP2 PUSH20 0xFFFFFFFFFFFFFFFFFFFFFFFFFFFFFFFFFFFFFFFF MUL NOT AND SWAP1 DUP4 PUSH20 0xFFFFFFFFFFFFFFFFFFFFFFFFFFFFFFFFFFFFFFFF AND MUL OR SWAP1 SSTORE POP DUP1 DUP1 PUSH2 0x893 SWAP1 PUSH2 0xFDB JUMP JUMPDEST SWAP2 POP POP PUSH2 0x802 JUMP JUMPDEST POP POP JUMP JUMPDEST PUSH2 0x8A7 PUSH2 0x9E1 JUMP JUMPDEST PUSH20 0xFFFFFFFFFFFFFFFFFFFFFFFFFFFFFFFFFFFFFFFF AND PUSH2 0x8C5 PUSH2 0x674 JUMP JUMPDEST PUSH20 0xFFFFFFFFFFFFFFFFFFFFFFFFFFFFFFFFFFFFFFFF AND EQ PUSH2 0x91B JUMPI PUSH1 0x40 MLOAD PUSH32 0x8C379A000000000000000000000000000000000000000000000000000000000 DUP2 MSTORE PUSH1 0x4 ADD PUSH2 0x912 SWAP1 PUSH2 0x119C JUMP JUMPDEST PUSH1 0x40 MLOAD DUP1 SWAP2 SUB SWAP1 REVERT JUMPDEST JUMP JUMPDEST PUSH1 0x0 DUP1 PUSH1 0x0 SWAP1 SLOAD SWAP1 PUSH2 0x100 EXP SWAP1 DIV PUSH20 0xFFFFFFFFFFFFFFFFFFFFFFFFFFFFFFFFFFFFFFFF AND SWAP1 POP DUP2 PUSH1 0x0 DUP1 PUSH2 0x100 EXP DUP2 SLOAD DUP2 PUSH20 0xFFFFFFFFFFFFFFFFFFFFFFFFFFFFFFFFFFFFFFFF MUL NOT AND SWAP1 DUP4 PUSH20 0xFFFFFFFFFFFFFFFFFFFFFFFFFFFFFFFFFFFFFFFF AND MUL OR SWAP1 SSTORE POP DUP2 PUSH20 0xFFFFFFFFFFFFFFFFFFFFFFFFFFFFFFFFFFFFFFFF AND DUP2 PUSH20 0xFFFFFFFFFFFFFFFFFFFFFFFFFFFFFFFFFFFFFFFF AND PUSH32 0x8BE0079C531659141344CD1FD0A4F28419497F9722A3DAAFE3B4186F6B6457E0 PUSH1 0x40 MLOAD PUSH1 0x40 MLOAD DUP1 SWAP2 SUB SWAP1 LOG3 POP POP JUMP JUMPDEST PUSH1 0x0 CALLER SWAP1 POP SWAP1 JUMP JUMPDEST PUSH1 0x0 DUP2 SWAP1 POP SWAP2 SWAP1 POP JUMP JUMPDEST PUSH2 0x9FC DUP2 PUSH2 0x9E9 JUMP JUMPDEST DUP3 MSTORE POP POP JUMP JUMPDEST PUSH1 0x0 PUSH1 0x20 DUP3 ADD SWAP1 POP PUSH2 0xA17 PUSH1 0x0 DUP4 ADD DUP5 PUSH2 0x9F3 JUMP JUMPDEST SWAP3 SWAP2 POP POP JUMP JUMPDEST PUSH1 0x0 PUSH1 0x40 MLOAD SWAP1 POP SWAP1 JUMP JUMPDEST PUSH1 0x0 DUP1 REVERT JUMPDEST PUSH1 0x0 DUP1 REVERT JUMPDEST PUSH2 0xA3A DUP2 PUSH2 0x9E9 JUMP JUMPDEST DUP2 EQ PUSH2 0xA45 JUMPI PUSH1 0x0 DUP1 REVERT JUMPDEST POP JUMP JUMPDEST PUSH1 0x0 DUP2 CALLDATALOAD SWAP1 POP PUSH2 0xA57 DUP2 PUSH2 0xA31 JUMP JUMPDEST SWAP3 SWAP2 POP POP JUMP JUMPDEST PUSH1 0x0 PUSH1 0x20 DUP3 DUP5 SUB SLT ISZERO PUSH2 0xA73 JUMPI PUSH2 0xA72 PUSH2 0xA27 JUMP JUMPDEST JUMPDEST PUSH1 0x0 PUSH2 0xA81 DUP5 DUP3 DUP6 ADD PUSH2 0xA48 JUMP JUMPDEST SWAP2 POP POP SWAP3 SWAP2 POP POP JUMP JUMPDEST PUSH1 0x0 PUSH20 0xFFFFFFFFFFFFFFFFFFFFFFFFFFFFFFFFFFFFFFFF DUP3 AND SWAP1 POP SWAP2 SWAP1 POP JUMP JUMPDEST PUSH1 0x0 PUSH2 0xAB5 DUP3 PUSH2 0xA8A JUMP JUMPDEST SWAP1 POP SWAP2 SWAP1 POP JUMP JUMPDEST PUSH2 0xAC5 DUP2 PUSH2 0xAAA JUMP JUMPDEST DUP2 EQ PUSH2 0xAD0 JUMPI PUSH1 0x0 DUP1 REVERT JUMPDEST POP JUMP JUMPDEST PUSH1 0x0 DUP2 CALLDATALOAD SWAP1 POP PUSH2 0xAE2 DUP2 PUSH2 0xABC JUMP JUMPDEST SWAP3 SWAP2 POP POP JUMP JUMPDEST PUSH1 0x0 PUSH1 0x20 DUP3 DUP5 SUB SLT ISZERO PUSH2 0xAFE JUMPI PUSH2 0xAFD PUSH2 0xA27 JUMP JUMPDEST JUMPDEST PUSH1 0x0 PUSH2 0xB0C DUP5 DUP3 DUP6 ADD PUSH2 0xAD3 JUMP JUMPDEST SWAP2 POP POP SWAP3 SWAP2 POP POP JUMP JUMPDEST PUSH1 0x0 PUSH2 0xB20 DUP3 PUSH2 0xA8A JUMP JUMPDEST SWAP1 POP SWAP2 SWAP1 POP JUMP JUMPDEST PUSH2 0xB30 DUP2 PUSH2 0xB15 JUMP JUMPDEST DUP2 EQ PUSH2 0xB3B JUMPI PUSH1 0x0 DUP1 REVERT JUMPDEST POP JUMP JUMPDEST PUSH1 0x0 DUP2 CALLDATALOAD SWAP1 POP PUSH2 0xB4D DUP2 PUSH2 0xB27 JUMP JUMPDEST SWAP3 SWAP2 POP POP JUMP JUMPDEST PUSH1 0x0 PUSH1 0x20 DUP3 DUP5 SUB SLT ISZERO PUSH2 0xB69 JUMPI PUSH2 0xB68 PUSH2 0xA27 JUMP JUMPDEST JUMPDEST PUSH1 0x0 PUSH2 0xB77 DUP5 DUP3 DUP6 ADD PUSH2 0xB3E JUMP JUMPDEST SWAP2 POP POP SWAP3 SWAP2 POP POP JUMP JUMPDEST PUSH2 0xB89 DUP2 PUSH2 0xAAA JUMP JUMPDEST DUP3 MSTORE POP POP JUMP JUMPDEST PUSH1 0x0 PUSH1 0x20 DUP3 ADD SWAP1 POP PUSH2 0xBA4 PUSH1 0x0 DUP4 ADD DUP5 PUSH2 0xB80 JUMP JUMPDEST SWAP3 SWAP2 POP POP JUMP JUMPDEST PUSH1 0x0 DUP2 MLOAD SWAP1 POP SWAP2 SWAP1 POP JUMP JUMPDEST PUSH1 0x0 DUP3 DUP3 MSTORE PUSH1 0x20 DUP3 ADD SWAP1 POP SWAP3 SWAP2 POP POP JUMP JUMPDEST PUSH1 0x0 DUP2 SWAP1 POP PUSH1 0x20 DUP3 ADD SWAP1 POP SWAP2 SWAP1 POP JUMP JUMPDEST PUSH2 0xBDF DUP2 PUSH2 0xAAA JUMP JUMPDEST DUP3 MSTORE POP POP JUMP JUMPDEST PUSH1 0x0 PUSH2 0xBF1 DUP4 DUP4 PUSH2 0xBD6 JUMP JUMPDEST PUSH1 0x20 DUP4 ADD SWAP1 POP SWAP3 SWAP2 POP POP JUMP JUMPDEST PUSH1 0x0 PUSH1 0x20 DUP3 ADD SWAP1 POP SWAP2 SWAP1 POP JUMP JUMPDEST PUSH1 0x0 PUSH2 0xC15 DUP3 PUSH2 0xBAA JUMP JUMPDEST PUSH2 0xC1F DUP2 DUP6 PUSH2 0xBB5 JUMP JUMPDEST SWAP4 POP PUSH2 0xC2A DUP4 PUSH2 0xBC6 JUMP JUMPDEST DUP1 PUSH1 0x0 JUMPDEST DUP4 DUP2 LT ISZERO PUSH2 0xC5B JUMPI DUP2 MLOAD PUSH2 0xC42 DUP9 DUP3 PUSH2 0xBE5 JUMP JUMPDEST SWAP8 POP PUSH2 0xC4D DUP4 PUSH2 0xBFD JUMP JUMPDEST SWAP3 POP POP PUSH1 0x1 DUP2 ADD SWAP1 POP PUSH2 0xC2E JUMP JUMPDEST POP DUP6 SWAP4 POP POP POP POP SWAP3 SWAP2 POP POP JUMP JUMPDEST PUSH1 0x0 PUSH1 0x20 DUP3 ADD SWAP1 POP DUP2 DUP2 SUB PUSH1 0x0 DUP4 ADD MSTORE PUSH2 0xC82 DUP2 DUP5 PUSH2 0xC0A JUMP JUMPDEST SWAP1 POP SWAP3 SWAP2 POP POP JUMP JUMPDEST PUSH1 0x0 DUP1 REVERT JUMPDEST PUSH1 0x0 PUSH1 0x1F NOT PUSH1 0x1F DUP4 ADD AND SWAP1 POP SWAP2 SWAP1 POP JUMP JUMPDEST PUSH32 0x4E487B7100000000000000000000000000000000000000000000000000000000 PUSH1 0x0 MSTORE PUSH1 0x41 PUSH1 0x4 MSTORE PUSH1 0x24 PUSH1 0x0 REVERT JUMPDEST PUSH2 0xCD8 DUP3 PUSH2 0xC8F JUMP JUMPDEST DUP2 ADD DUP2 DUP2 LT PUSH8 0xFFFFFFFFFFFFFFFF DUP3 GT OR ISZERO PUSH2 0xCF7 JUMPI PUSH2 0xCF6 PUSH2 0xCA0 JUMP JUMPDEST JUMPDEST DUP1 PUSH1 0x40 MSTORE POP POP POP JUMP JUMPDEST PUSH1 0x0 PUSH2 0xD0A PUSH2 0xA1D JUMP JUMPDEST SWAP1 POP PUSH2 0xD16 DUP3 DUP3 PUSH2 0xCCF JUMP JUMPDEST SWAP2 SWAP1 POP JUMP JUMPDEST PUSH1 0x0 PUSH8 0xFFFFFFFFFFFFFFFF DUP3 GT ISZERO PUSH2 0xD36 JUMPI PUSH2 0xD35 PUSH2 0xCA0 JUMP JUMPDEST JUMPDEST PUSH1 0x20 DUP3 MUL SWAP1 POP PUSH1 0x20 DUP2 ADD SWAP1 POP SWAP2 SWAP1 POP JUMP JUMPDEST PUSH1 0x0 DUP1 REVERT JUMPDEST PUSH1 0x0 PUSH2 0xD5F PUSH2 0xD5A DUP5 PUSH2 0xD1B JUMP JUMPDEST PUSH2 0xD00 JUMP JUMPDEST SWAP1 POP DUP1 DUP4 DUP3 MSTORE PUSH1 0x20 DUP3 ADD SWAP1 POP PUSH1 0x20 DUP5 MUL DUP4 ADD DUP6 DUP2 GT ISZERO PUSH2 0xD82 JUMPI PUSH2 0xD81 PUSH2 0xD47 JUMP JUMPDEST JUMPDEST DUP4 JUMPDEST DUP2 DUP2 LT ISZERO PUSH2 0xDAB JUMPI DUP1 PUSH2 0xD97 DUP9 DUP3 PUSH2 0xAD3 JUMP JUMPDEST DUP5 MSTORE PUSH1 0x20 DUP5 ADD SWAP4 POP POP PUSH1 0x20 DUP2 ADD SWAP1 POP PUSH2 0xD84 JUMP JUMPDEST POP POP POP SWAP4 SWAP3 POP POP POP JUMP JUMPDEST PUSH1 0x0 DUP3 PUSH1 0x1F DUP4 ADD SLT PUSH2 0xDCA JUMPI PUSH2 0xDC9 PUSH2 0xC8A JUMP JUMPDEST JUMPDEST DUP2 CALLDATALOAD PUSH2 0xDDA DUP5 DUP3 PUSH1 0x20 DUP7 ADD PUSH2 0xD4C JUMP JUMPDEST SWAP2 POP POP SWAP3 SWAP2 POP POP JUMP JUMPDEST PUSH1 0x0 PUSH1 0x20 DUP3 DUP5 SUB SLT ISZERO PUSH2 0xDF9 JUMPI PUSH2 0xDF8 PUSH2 0xA27 JUMP JUMPDEST JUMPDEST PUSH1 0x0 DUP3 ADD CALLDATALOAD PUSH8 0xFFFFFFFFFFFFFFFF DUP2 GT ISZERO PUSH2 0xE17 JUMPI PUSH2 0xE16 PUSH2 0xA2C JUMP JUMPDEST JUMPDEST PUSH2 0xE23 DUP5 DUP3 DUP6 ADD PUSH2 0xDB5 JUMP JUMPDEST SWAP2 POP POP SWAP3 SWAP2 POP POP JUMP JUMPDEST PUSH1 0x0 DUP3 DUP3 MSTORE PUSH1 0x20 DUP3 ADD SWAP1 POP SWAP3 SWAP2 POP POP JUMP JUMPDEST PUSH32 0x496E76616C696420416D6F756E74000000000000000000000000000000000000 PUSH1 0x0 DUP3 ADD MSTORE POP JUMP JUMPDEST PUSH1 0x0 PUSH2 0xE73 PUSH1 0xE DUP4 PUSH2 0xE2C JUMP JUMPDEST SWAP2 POP PUSH2 0xE7E DUP3 PUSH2 0xE3D JUMP JUMPDEST PUSH1 0x20 DUP3 ADD SWAP1 POP SWAP2 SWAP1 POP JUMP JUMPDEST PUSH1 0x0 PUSH1 0x20 DUP3 ADD SWAP1 POP DUP2 DUP2 SUB PUSH1 0x0 DUP4 ADD MSTORE PUSH2 0xEA2 DUP2 PUSH2 0xE66 JUMP JUMPDEST SWAP1 POP SWAP2 SWAP1 POP JUMP JUMPDEST PUSH32 0x4E487B7100000000000000000000000000000000000000000000000000000000 PUSH1 0x0 MSTORE PUSH1 0x11 PUSH1 0x4 MSTORE PUSH1 0x24 PUSH1 0x0 REVERT JUMPDEST PUSH1 0x0 PUSH2 0xEE3 DUP3 PUSH2 0x9E9 JUMP JUMPDEST SWAP2 POP PUSH2 0xEEE DUP4 PUSH2 0x9E9 JUMP JUMPDEST SWAP3 POP DUP3 DUP3 ADD SWAP1 POP DUP1 DUP3 GT ISZERO PUSH2 0xF06 JUMPI PUSH2 0xF05 PUSH2 0xEA9 JUMP JUMPDEST JUMPDEST SWAP3 SWAP2 POP POP JUMP JUMPDEST PUSH32 0x496E646578206F7574206F6620626F756E647300000000000000000000000000 PUSH1 0x0 DUP3 ADD MSTORE POP JUMP JUMPDEST PUSH1 0x0 PUSH2 0xF42 PUSH1 0x13 DUP4 PUSH2 0xE2C JUMP JUMPDEST SWAP2 POP PUSH2 0xF4D DUP3 PUSH2 0xF0C JUMP JUMPDEST PUSH1 0x20 DUP3 ADD SWAP1 POP SWAP2 SWAP1 POP JUMP JUMPDEST PUSH1 0x0 PUSH1 0x20 DUP3 ADD SWAP1 POP DUP2 DUP2 SUB PUSH1 0x0 DUP4 ADD MSTORE PUSH2 0xF71 DUP2 PUSH2 0xF35 JUMP JUMPDEST SWAP1 POP SWAP2 SWAP1 POP JUMP JUMPDEST PUSH1 0x0 PUSH2 0xF83 DUP3 PUSH2 0x9E9 JUMP JUMPDEST SWAP2 POP PUSH2 0xF8E DUP4 PUSH2 0x9E9 JUMP JUMPDEST SWAP3 POP DUP3 DUP3 SUB SWAP1 POP DUP2 DUP2 GT ISZERO PUSH2 0xFA6 JUMPI PUSH2 0xFA5 PUSH2 0xEA9 JUMP JUMPDEST JUMPDEST SWAP3 SWAP2 POP POP JUMP JUMPDEST PUSH32 0x4E487B7100000000000000000000000000000000000000000000000000000000 PUSH1 0x0 MSTORE PUSH1 0x32 PUSH1 0x4 MSTORE PUSH1 0x24 PUSH1 0x0 REVERT JUMPDEST PUSH1 0x0 PUSH2 0xFE6 DUP3 PUSH2 0x9E9 JUMP JUMPDEST SWAP2 POP PUSH32 0xFFFFFFFFFFFFFFFFFFFFFFFFFFFFFFFFFFFFFFFFFFFFFFFFFFFFFFFFFFFFFFFF DUP3 SUB PUSH2 0x1018 JUMPI PUSH2 0x1017 PUSH2 0xEA9 JUMP JUMPDEST JUMPDEST PUSH1 0x1 DUP3 ADD SWAP1 POP SWAP2 SWAP1 POP JUMP JUMPDEST PUSH32 0x4E487B7100000000000000000000000000000000000000000000000000000000 PUSH1 0x0 MSTORE PUSH1 0x31 PUSH1 0x4 MSTORE PUSH1 0x24 PUSH1 0x0 REVERT JUMPDEST PUSH32 0x496E73756666696369656E742042616C616E6365000000000000000000000000 PUSH1 0x0 DUP3 ADD MSTORE POP JUMP JUMPDEST PUSH1 0x0 PUSH2 0x1088 PUSH1 0x14 DUP4 PUSH2 0xE2C JUMP JUMPDEST SWAP2 POP PUSH2 0x1093 DUP3 PUSH2 0x1052 JUMP JUMPDEST PUSH1 0x20 DUP3 ADD SWAP1 POP SWAP2 SWAP1 POP JUMP JUMPDEST PUSH1 0x0 PUSH1 0x20 DUP3 ADD SWAP1 POP DUP2 DUP2 SUB PUSH1 0x0 DUP4 ADD MSTORE PUSH2 0x10B7 DUP2 PUSH2 0x107B JUMP JUMPDEST SWAP1 POP SWAP2 SWAP1 POP JUMP JUMPDEST PUSH32 0x4F776E61626C653A206E6577206F776E657220697320746865207A65726F2061 PUSH1 0x0 DUP3 ADD MSTORE PUSH32 0x6464726573730000000000000000000000000000000000000000000000000000 PUSH1 0x20 DUP3 ADD MSTORE POP JUMP JUMPDEST PUSH1 0x0 PUSH2 0x111A PUSH1 0x26 DUP4 PUSH2 0xE2C JUMP JUMPDEST SWAP2 POP PUSH2 0x1125 DUP3 PUSH2 0x10BE JUMP JUMPDEST PUSH1 0x40 DUP3 ADD SWAP1 POP SWAP2 SWAP1 POP JUMP JUMPDEST PUSH1 0x0 PUSH1 0x20 DUP3 ADD SWAP1 POP DUP2 DUP2 SUB PUSH1 0x0 DUP4 ADD MSTORE PUSH2 0x1149 DUP2 PUSH2 0x110D JUMP JUMPDEST SWAP1 POP SWAP2 SWAP1 POP JUMP JUMPDEST PUSH32 0x4F776E61626C653A2063616C6C6572206973206E6F7420746865206F776E6572 PUSH1 0x0 DUP3 ADD MSTORE POP JUMP JUMPDEST PUSH1 0x0 PUSH2 0x1186 PUSH1 0x20 DUP4 PUSH2 0xE2C JUMP JUMPDEST SWAP2 POP PUSH2 0x1191 DUP3 PUSH2 0x1150 JUMP JUMPDEST PUSH1 0x20 DUP3 ADD SWAP1 POP SWAP2 SWAP1 POP JUMP JUMPDEST PUSH1 0x0 PUSH1 0x20 DUP3 ADD SWAP1 POP DUP2 DUP2 SUB PUSH1 0x0 DUP4 ADD MSTORE PUSH2 0x11B5 DUP2 PUSH2 0x1179 JUMP JUMPDEST SWAP1 POP SWAP2 SWAP1 POP JUMP INVALID LOG2 PUSH5 0x6970667358 0x22 SLT KECCAK256 0xB0 0x2D 0xCB 0x1F PUSH28 0x3570F8557DC0B8C34012D54403AA75BE14BB55B5D17AD0604DC34164 PUSH20 0x6F6C634300081200330000000000000000000000 "
				},
				"gasEstimates": {
					"creation": {
						"codeDepositCost": "918800",
						"executionCost": "infinite",
						"totalCost": "infinite"
					},
					"external": {
						"addIntoTreasury()": "infinite",
						"addNftHoldersInBulk(address[])": "infinite",
						"addSingleNftHolder(address)": "51365",
						"changestakingReward(uint256)": "24853",
						"checkTreasuryBalance()": "4725",
						"nftHolders(uint256)": "5022",
						"owner()": "2567",
						"removeNftHolder(uint256)": "infinite",
						"renounceOwnership()": "30487",
						"showAllNftHolders()": "infinite",
						"sizeOfNftHolder()": "2468",
						"transferOwnership(address)": "30766",
						"transferReward(address)": "infinite",
						"transferStakingReward()": "2732"
					}
				},
				"methodIdentifiers": {
					"addIntoTreasury()": "2bf24072",
					"addNftHoldersInBulk(address[])": "feb99386",
					"addSingleNftHolder(address)": "3bafcf02",
					"changestakingReward(uint256)": "13c9e48a",
					"checkTreasuryBalance()": "0f138bfe",
					"nftHolders(uint256)": "fd32dd9e",
					"owner()": "8da5cb5b",
					"removeNftHolder(uint256)": "3baacc78",
					"renounceOwnership()": "715018a6",
					"showAllNftHolders()": "aa88c53b",
					"sizeOfNftHolder()": "3b882fbd",
					"transferOwnership(address)": "f2fde38b",
					"transferReward(address)": "8c93256e",
					"transferStakingReward()": "f4c4c79f"
				}
			},
			"storageLayout": {
				"storage": [
					{
						"astId": 7,
						"contract": "contracts/stakingContract.sol:stakingContract",
						"label": "_owner",
						"offset": 0,
						"slot": "0",
						"type": "t_address"
					},
					{
						"astId": 142,
						"contract": "contracts/stakingContract.sol:stakingContract",
						"label": "nftHolders",
						"offset": 0,
						"slot": "1",
						"type": "t_array(t_address)dyn_storage"
					},
					{
						"astId": 144,
						"contract": "contracts/stakingContract.sol:stakingContract",
						"label": "stakingReward",
						"offset": 0,
						"slot": "2",
						"type": "t_uint256"
					},
					{
						"astId": 146,
						"contract": "contracts/stakingContract.sol:stakingContract",
						"label": "treasury",
						"offset": 0,
						"slot": "3",
						"type": "t_uint256"
					}
				],
				"types": {
					"t_address": {
						"encoding": "inplace",
						"label": "address",
						"numberOfBytes": "20"
					},
					"t_array(t_address)dyn_storage": {
						"base": "t_address",
						"encoding": "dynamic_array",
						"label": "address[]",
						"numberOfBytes": "32"
					},
					"t_uint256": {
						"encoding": "inplace",
						"label": "uint256",
						"numberOfBytes": "32"
					}
				}
			},
			"userdoc": {
				"kind": "user",
				"methods": {},
				"version": 1
			}
		}
	}
}